{
	"Structs.sol": {
		"Structs": {
			"abi": [
				{
					"inputs": [],
					"name": "car",
					"outputs": [
						{
							"internalType": "string",
							"name": "model",
							"type": "string"
						},
						{
							"internalType": "uint256",
							"name": "year",
							"type": "uint256"
						},
						{
							"internalType": "address",
							"name": "owner",
							"type": "address"
						}
					],
					"stateMutability": "view",
					"type": "function"
				},
				{
					"inputs": [
						{
							"internalType": "uint256",
							"name": "",
							"type": "uint256"
						}
					],
					"name": "cars",
					"outputs": [
						{
							"internalType": "string",
							"name": "model",
							"type": "string"
						},
						{
							"internalType": "uint256",
							"name": "year",
							"type": "uint256"
						},
						{
							"internalType": "address",
							"name": "owner",
							"type": "address"
						}
					],
					"stateMutability": "view",
					"type": "function"
				},
				{
					"inputs": [
						{
							"internalType": "address",
							"name": "",
							"type": "address"
						},
						{
							"internalType": "uint256",
							"name": "",
							"type": "uint256"
						}
					],
					"name": "carsByeOwner",
					"outputs": [
						{
							"internalType": "string",
							"name": "model",
							"type": "string"
						},
						{
							"internalType": "uint256",
							"name": "year",
							"type": "uint256"
						},
						{
							"internalType": "address",
							"name": "owner",
							"type": "address"
						}
					],
					"stateMutability": "view",
					"type": "function"
				},
				{
					"inputs": [],
					"name": "examples",
					"outputs": [],
					"stateMutability": "nonpayable",
					"type": "function"
				}
			],
			"devdoc": {
				"kind": "dev",
				"methods": {},
				"version": 1
			},
			"evm": {
				"assembly": "    /* \"Structs.sol\":60:918  contract Structs {... */\n  mstore(0x40, 0x80)\n  callvalue\n  dup1\n  iszero\n  tag_1\n  jumpi\n  0x00\n  dup1\n  revert\ntag_1:\n  pop\n  dataSize(sub_0)\n  dup1\n  dataOffset(sub_0)\n  0x00\n  codecopy\n  0x00\n  return\nstop\n\nsub_0: assembly {\n        /* \"Structs.sol\":60:918  contract Structs {... */\n      mstore(0x40, 0x80)\n      callvalue\n      dup1\n      iszero\n      tag_1\n      jumpi\n      0x00\n      dup1\n      revert\n    tag_1:\n      pop\n      jumpi(tag_2, lt(calldatasize, 0x04))\n      shr(0xe0, calldataload(0x00))\n      dup1\n      0x335d00c2\n      eq\n      tag_3\n      jumpi\n      dup1\n      0x78684dde\n      eq\n      tag_4\n      jumpi\n      dup1\n      0xee26fac3\n      eq\n      tag_5\n      jumpi\n      dup1\n      0xf7746e36\n      eq\n      tag_6\n      jumpi\n    tag_2:\n      0x00\n      dup1\n      revert\n        /* \"Structs.sol\":277:915  function examples() external {... */\n    tag_3:\n      tag_7\n      tag_8\n      jump\t// in\n    tag_7:\n      stop\n        /* \"Structs.sol\":223:268  mapping(address => Car[]) public carsByeOwner */\n    tag_4:\n      tag_9\n      0x04\n      dup1\n      calldatasize\n      sub\n      dup2\n      add\n      swap1\n      tag_10\n      swap2\n      swap1\n      tag_11\n      jump\t// in\n    tag_10:\n      tag_12\n      jump\t// in\n    tag_9:\n      mload(0x40)\n      tag_13\n      swap4\n      swap3\n      swap2\n      swap1\n      tag_14\n      jump\t// in\n    tag_13:\n      mload(0x40)\n      dup1\n      swap2\n      sub\n      swap1\n      return\n        /* \"Structs.sol\":178:192  Car public car */\n    tag_5:\n      tag_15\n      tag_16\n      jump\t// in\n    tag_15:\n      mload(0x40)\n      tag_17\n      swap4\n      swap3\n      swap2\n      swap1\n      tag_14\n      jump\t// in\n    tag_17:\n      mload(0x40)\n      dup1\n      swap2\n      sub\n      swap1\n      return\n        /* \"Structs.sol\":199:216  Car[] public cars */\n    tag_6:\n      tag_18\n      0x04\n      dup1\n      calldatasize\n      sub\n      dup2\n      add\n      swap1\n      tag_19\n      swap2\n      swap1\n      tag_20\n      jump\t// in\n    tag_19:\n      tag_21\n      jump\t// in\n    tag_18:\n      mload(0x40)\n      tag_22\n      swap4\n      swap3\n      swap2\n      swap1\n      tag_14\n      jump\t// in\n    tag_22:\n      mload(0x40)\n      dup1\n      swap2\n      sub\n      swap1\n      return\n        /* \"Structs.sol\":277:915  function examples() external {... */\n    tag_8:\n        /* \"Structs.sol\":317:334  Car memory toyota */\n      0x00\n        /* \"Structs.sol\":337:368  Car(\"Toyata\", 1983, msg.sender) */\n      mload(0x40)\n      dup1\n      0x60\n      add\n      0x40\n      mstore\n      dup1\n      mload(0x40)\n      dup1\n      0x40\n      add\n      0x40\n      mstore\n      dup1\n      0x06\n      dup2\n      mstore\n      0x20\n      add\n      0x546f796174610000000000000000000000000000000000000000000000000000\n      dup2\n      mstore\n      pop\n      dup2\n      mstore\n      0x20\n      add\n        /* \"Structs.sol\":351:355  1983 */\n      0x07bf\n        /* \"Structs.sol\":337:368  Car(\"Toyata\", 1983, msg.sender) */\n      dup2\n      mstore\n      0x20\n      add\n        /* \"Structs.sol\":357:367  msg.sender */\n      caller\n        /* \"Structs.sol\":337:368  Car(\"Toyata\", 1983, msg.sender) */\n      0xffffffffffffffffffffffffffffffffffffffff\n      and\n      dup2\n      mstore\n      pop\n        /* \"Structs.sol\":317:368  Car memory toyota = Car(\"Toyata\", 1983, msg.sender) */\n      swap1\n      pop\n        /* \"Structs.sol\":379:395  Car memory lambo */\n      0x00\n        /* \"Structs.sol\":398:455  Car({year: 1980, model: \"Lamboghini\", owner: msg.sender}) */\n      mload(0x40)\n      dup1\n      0x60\n      add\n      0x40\n      mstore\n      dup1\n      mload(0x40)\n      dup1\n      0x40\n      add\n      0x40\n      mstore\n      dup1\n      0x0a\n      dup2\n      mstore\n      0x20\n      add\n      0x4c616d626f6768696e6900000000000000000000000000000000000000000000\n      dup2\n      mstore\n      pop\n      dup2\n      mstore\n      0x20\n      add\n        /* \"Structs.sol\":409:413  1980 */\n      0x07bc\n        /* \"Structs.sol\":398:455  Car({year: 1980, model: \"Lamboghini\", owner: msg.sender}) */\n      dup2\n      mstore\n      0x20\n      add\n        /* \"Structs.sol\":443:453  msg.sender */\n      caller\n        /* \"Structs.sol\":398:455  Car({year: 1980, model: \"Lamboghini\", owner: msg.sender}) */\n      0xffffffffffffffffffffffffffffffffffffffff\n      and\n      dup2\n      mstore\n      pop\n        /* \"Structs.sol\":379:455  Car memory lambo = Car({year: 1980, model: \"Lamboghini\", owner: msg.sender}) */\n      swap1\n      pop\n        /* \"Structs.sol\":466:482  Car memory tesla */\n      tag_24\n      tag_25\n      jump\t// in\n    tag_24:\n        /* \"Structs.sol\":493:514  tesla.model = \"Tesla\" */\n      mload(0x40)\n      dup1\n      0x40\n      add\n      0x40\n      mstore\n      dup1\n      0x05\n      dup2\n      mstore\n      0x20\n      add\n      0x5465736c61000000000000000000000000000000000000000000000000000000\n      dup2\n      mstore\n      pop\n        /* \"Structs.sol\":493:498  tesla */\n      dup2\n        /* \"Structs.sol\":493:504  tesla.model */\n      0x00\n      add\n        /* \"Structs.sol\":493:514  tesla.model = \"Tesla\" */\n      dup2\n      swap1\n      mstore\n      pop\n        /* \"Structs.sol\":538:542  2010 */\n      0x07da\n        /* \"Structs.sol\":525:530  tesla */\n      dup2\n        /* \"Structs.sol\":525:535  tesla.year */\n      0x20\n      add\n        /* \"Structs.sol\":525:542  tesla.year = 2010 */\n      dup2\n      dup2\n      mstore\n      pop\n      pop\n        /* \"Structs.sol\":567:577  msg.sender */\n      caller\n        /* \"Structs.sol\":553:558  tesla */\n      dup2\n        /* \"Structs.sol\":553:564  tesla.owner */\n      0x40\n      add\n        /* \"Structs.sol\":553:577  tesla.owner = msg.sender */\n      swap1\n      0xffffffffffffffffffffffffffffffffffffffff\n      and\n      swap1\n      dup2\n      0xffffffffffffffffffffffffffffffffffffffff\n      and\n      dup2\n      mstore\n      pop\n      pop\n        /* \"Structs.sol\":590:594  cars */\n      0x03\n        /* \"Structs.sol\":600:606  toyota */\n      dup4\n        /* \"Structs.sol\":590:607  cars.push(toyota) */\n      swap1\n      dup1\n      0x01\n      dup2\n      sload\n      add\n      dup1\n      dup3\n      sstore\n      dup1\n      swap2\n      pop\n      pop\n      0x01\n      swap1\n      sub\n      swap1\n      0x00\n      mstore\n      keccak256(0x00, 0x20)\n      swap1\n      0x03\n      mul\n      add\n      0x00\n      swap1\n      swap2\n      swap1\n      swap2\n      swap1\n      swap2\n      pop\n      0x00\n      dup3\n      add\n      mload\n      dup2\n      0x00\n      add\n      swap1\n      dup2\n      tag_27\n      swap2\n      swap1\n      tag_28\n      jump\t// in\n    tag_27:\n      pop\n      0x20\n      dup3\n      add\n      mload\n      dup2\n      0x01\n      add\n      sstore\n      0x40\n      dup3\n      add\n      mload\n      dup2\n      0x02\n      add\n      exp(0x0100, 0x00)\n      dup2\n      sload\n      dup2\n      0xffffffffffffffffffffffffffffffffffffffff\n      mul\n      not\n      and\n      swap1\n      dup4\n      0xffffffffffffffffffffffffffffffffffffffff\n      and\n      mul\n      or\n      swap1\n      sstore\n      pop\n      pop\n      pop\n        /* \"Structs.sol\":618:622  cars */\n      0x03\n        /* \"Structs.sol\":628:633  lambo */\n      dup3\n        /* \"Structs.sol\":618:634  cars.push(lambo) */\n      swap1\n      dup1\n      0x01\n      dup2\n      sload\n      add\n      dup1\n      dup3\n      sstore\n      dup1\n      swap2\n      pop\n      pop\n      0x01\n      swap1\n      sub\n      swap1\n      0x00\n      mstore\n      keccak256(0x00, 0x20)\n      swap1\n      0x03\n      mul\n      add\n      0x00\n      swap1\n      swap2\n      swap1\n      swap2\n      swap1\n      swap2\n      pop\n      0x00\n      dup3\n      add\n      mload\n      dup2\n      0x00\n      add\n      swap1\n      dup2\n      tag_30\n      swap2\n      swap1\n      tag_28\n      jump\t// in\n    tag_30:\n      pop\n      0x20\n      dup3\n      add\n      mload\n      dup2\n      0x01\n      add\n      sstore\n      0x40\n      dup3\n      add\n      mload\n      dup2\n      0x02\n      add\n      exp(0x0100, 0x00)\n      dup2\n      sload\n      dup2\n      0xffffffffffffffffffffffffffffffffffffffff\n      mul\n      not\n      and\n      swap1\n      dup4\n      0xffffffffffffffffffffffffffffffffffffffff\n      and\n      mul\n      or\n      swap1\n      sstore\n      pop\n      pop\n      pop\n        /* \"Structs.sol\":645:649  cars */\n      0x03\n        /* \"Structs.sol\":655:660  tesla */\n      dup2\n        /* \"Structs.sol\":645:661  cars.push(tesla) */\n      swap1\n      dup1\n      0x01\n      dup2\n      sload\n      add\n      dup1\n      dup3\n      sstore\n      dup1\n      swap2\n      pop\n      pop\n      0x01\n      swap1\n      sub\n      swap1\n      0x00\n      mstore\n      keccak256(0x00, 0x20)\n      swap1\n      0x03\n      mul\n      add\n      0x00\n      swap1\n      swap2\n      swap1\n      swap2\n      swap1\n      swap2\n      pop\n      0x00\n      dup3\n      add\n      mload\n      dup2\n      0x00\n      add\n      swap1\n      dup2\n      tag_32\n      swap2\n      swap1\n      tag_28\n      jump\t// in\n    tag_32:\n      pop\n      0x20\n      dup3\n      add\n      mload\n      dup2\n      0x01\n      add\n      sstore\n      0x40\n      dup3\n      add\n      mload\n      dup2\n      0x02\n      add\n      exp(0x0100, 0x00)\n      dup2\n      sload\n      dup2\n      0xffffffffffffffffffffffffffffffffffffffff\n      mul\n      not\n      and\n      swap1\n      dup4\n      0xffffffffffffffffffffffffffffffffffffffff\n      and\n      mul\n      or\n      swap1\n      sstore\n      pop\n      pop\n      pop\n        /* \"Structs.sol\":674:678  cars */\n      0x03\n        /* \"Structs.sol\":684:716  Car(\"Ferrari\", 2020, msg.sender) */\n      mload(0x40)\n      dup1\n      0x60\n      add\n      0x40\n      mstore\n      dup1\n      mload(0x40)\n      dup1\n      0x40\n      add\n      0x40\n      mstore\n      dup1\n      0x07\n      dup2\n      mstore\n      0x20\n      add\n      0x4665727261726900000000000000000000000000000000000000000000000000\n      dup2\n      mstore\n      pop\n      dup2\n      mstore\n      0x20\n      add\n        /* \"Structs.sol\":699:703  2020 */\n      0x07e4\n        /* \"Structs.sol\":684:716  Car(\"Ferrari\", 2020, msg.sender) */\n      dup2\n      mstore\n      0x20\n      add\n        /* \"Structs.sol\":705:715  msg.sender */\n      caller\n        /* \"Structs.sol\":684:716  Car(\"Ferrari\", 2020, msg.sender) */\n      0xffffffffffffffffffffffffffffffffffffffff\n      and\n      dup2\n      mstore\n      pop\n        /* \"Structs.sol\":674:717  cars.push(Car(\"Ferrari\", 2020, msg.sender)) */\n      swap1\n      dup1\n      0x01\n      dup2\n      sload\n      add\n      dup1\n      dup3\n      sstore\n      dup1\n      swap2\n      pop\n      pop\n      0x01\n      swap1\n      sub\n      swap1\n      0x00\n      mstore\n      keccak256(0x00, 0x20)\n      swap1\n      0x03\n      mul\n      add\n      0x00\n      swap1\n      swap2\n      swap1\n      swap2\n      swap1\n      swap2\n      pop\n      0x00\n      dup3\n      add\n      mload\n      dup2\n      0x00\n      add\n      swap1\n      dup2\n      tag_34\n      swap2\n      swap1\n      tag_28\n      jump\t// in\n    tag_34:\n      pop\n      0x20\n      dup3\n      add\n      mload\n      dup2\n      0x01\n      add\n      sstore\n      0x40\n      dup3\n      add\n      mload\n      dup2\n      0x02\n      add\n      exp(0x0100, 0x00)\n      dup2\n      sload\n      dup2\n      0xffffffffffffffffffffffffffffffffffffffff\n      mul\n      not\n      and\n      swap1\n      dup4\n      0xffffffffffffffffffffffffffffffffffffffff\n      and\n      mul\n      or\n      swap1\n      sstore\n      pop\n      pop\n      pop\n        /* \"Structs.sol\":728:740  carsByeOwner */\n      0x04\n        /* \"Structs.sol\":728:752  carsByeOwner[msg.sender] */\n      0x00\n        /* \"Structs.sol\":741:751  msg.sender */\n      caller\n        /* \"Structs.sol\":728:752  carsByeOwner[msg.sender] */\n      0xffffffffffffffffffffffffffffffffffffffff\n      and\n      0xffffffffffffffffffffffffffffffffffffffff\n      and\n      dup2\n      mstore\n      0x20\n      add\n      swap1\n      dup2\n      mstore\n      0x20\n      add\n      0x00\n      keccak256\n        /* \"Structs.sol\":758:787  Car(\"Audi\", 2020, msg.sender) */\n      mload(0x40)\n      dup1\n      0x60\n      add\n      0x40\n      mstore\n      dup1\n      mload(0x40)\n      dup1\n      0x40\n      add\n      0x40\n      mstore\n      dup1\n      0x04\n      dup2\n      mstore\n      0x20\n      add\n      0x4175646900000000000000000000000000000000000000000000000000000000\n      dup2\n      mstore\n      pop\n      dup2\n      mstore\n      0x20\n      add\n        /* \"Structs.sol\":770:774  2020 */\n      0x07e4\n        /* \"Structs.sol\":758:787  Car(\"Audi\", 2020, msg.sender) */\n      dup2\n      mstore\n      0x20\n      add\n        /* \"Structs.sol\":776:786  msg.sender */\n      caller\n        /* \"Structs.sol\":758:787  Car(\"Audi\", 2020, msg.sender) */\n      0xffffffffffffffffffffffffffffffffffffffff\n      and\n      dup2\n      mstore\n      pop\n        /* \"Structs.sol\":728:788  carsByeOwner[msg.sender].push(Car(\"Audi\", 2020, msg.sender)) */\n      swap1\n      dup1\n      0x01\n      dup2\n      sload\n      add\n      dup1\n      dup3\n      sstore\n      dup1\n      swap2\n      pop\n      pop\n      0x01\n      swap1\n      sub\n      swap1\n      0x00\n      mstore\n      keccak256(0x00, 0x20)\n      swap1\n      0x03\n      mul\n      add\n      0x00\n      swap1\n      swap2\n      swap1\n      swap2\n      swap1\n      swap2\n      pop\n      0x00\n      dup3\n      add\n      mload\n      dup2\n      0x00\n      add\n      swap1\n      dup2\n      tag_36\n      swap2\n      swap1\n      tag_28\n      jump\t// in\n    tag_36:\n      pop\n      0x20\n      dup3\n      add\n      mload\n      dup2\n      0x01\n      add\n      sstore\n      0x40\n      dup3\n      add\n      mload\n      dup2\n      0x02\n      add\n      exp(0x0100, 0x00)\n      dup2\n      sload\n      dup2\n      0xffffffffffffffffffffffffffffffffffffffff\n      mul\n      not\n      and\n      swap1\n      dup4\n      0xffffffffffffffffffffffffffffffffffffffff\n      and\n      mul\n      or\n      swap1\n      sstore\n      pop\n      pop\n      pop\n        /* \"Structs.sol\":801:817  Car storage _car */\n      0x00\n        /* \"Structs.sol\":820:824  cars */\n      0x03\n        /* \"Structs.sol\":825:826  0 */\n      0x00\n        /* \"Structs.sol\":820:827  cars[0] */\n      dup2\n      sload\n      dup2\n      lt\n      tag_37\n      jumpi\n      tag_38\n      tag_39\n      jump\t// in\n    tag_38:\n    tag_37:\n      swap1\n      0x00\n      mstore\n      keccak256(0x00, 0x20)\n      swap1\n      0x03\n      mul\n      add\n        /* \"Structs.sol\":801:827  Car storage _car = cars[0] */\n      swap1\n      pop\n        /* \"Structs.sol\":850:854  1990 */\n      0x07c6\n        /* \"Structs.sol\":838:842  _car */\n      dup2\n        /* \"Structs.sol\":838:847  _car.year */\n      0x01\n      add\n        /* \"Structs.sol\":838:854  _car.year = 1990 */\n      dup2\n      swap1\n      sstore\n      pop\n        /* \"Structs.sol\":872:876  _car */\n      dup1\n        /* \"Structs.sol\":872:882  _car.owner */\n      0x02\n      add\n      0x00\n        /* \"Structs.sol\":865:882  delete _car.owner */\n      0x0100\n      exp\n      dup2\n      sload\n      swap1\n      0xffffffffffffffffffffffffffffffffffffffff\n      mul\n      not\n      and\n      swap1\n      sstore\n        /* \"Structs.sol\":900:904  cars */\n      0x03\n        /* \"Structs.sol\":905:906  1 */\n      0x01\n        /* \"Structs.sol\":900:907  cars[1] */\n      dup2\n      sload\n      dup2\n      lt\n      tag_41\n      jumpi\n      tag_42\n      tag_39\n      jump\t// in\n    tag_42:\n    tag_41:\n      swap1\n      0x00\n      mstore\n      keccak256(0x00, 0x20)\n      swap1\n      0x03\n      mul\n      add\n      0x00\n        /* \"Structs.sol\":893:907  delete cars[1] */\n      dup1\n      dup3\n      add\n      0x00\n      tag_44\n      swap2\n      swap1\n      tag_45\n      jump\t// in\n    tag_44:\n      0x01\n      dup3\n      add\n      0x00\n      swap1\n      sstore\n      0x02\n      dup3\n      add\n      exp(0x0100, 0x00)\n      dup2\n      sload\n      swap1\n      0xffffffffffffffffffffffffffffffffffffffff\n      mul\n      not\n      and\n      swap1\n      sstore\n      pop\n      pop\n        /* \"Structs.sol\":306:915  {... */\n      pop\n      pop\n      pop\n      pop\n        /* \"Structs.sol\":277:915  function examples() external {... */\n      jump\t// out\n        /* \"Structs.sol\":223:268  mapping(address => Car[]) public carsByeOwner */\n    tag_12:\n      mstore(0x20, 0x04)\n      dup2\n      0x00\n      mstore\n      keccak256(0x00, 0x40)\n      dup2\n      dup2\n      sload\n      dup2\n      lt\n      tag_46\n      jumpi\n      0x00\n      dup1\n      revert\n    tag_46:\n      swap1\n      0x00\n      mstore\n      keccak256(0x00, 0x20)\n      swap1\n      0x03\n      mul\n      add\n      0x00\n      swap2\n      pop\n      swap2\n      pop\n      pop\n      dup1\n      0x00\n      add\n      dup1\n      sload\n      tag_48\n      swap1\n      tag_49\n      jump\t// in\n    tag_48:\n      dup1\n      0x1f\n      add\n      0x20\n      dup1\n      swap2\n      div\n      mul\n      0x20\n      add\n      mload(0x40)\n      swap1\n      dup2\n      add\n      0x40\n      mstore\n      dup1\n      swap3\n      swap2\n      swap1\n      dup2\n      dup2\n      mstore\n      0x20\n      add\n      dup3\n      dup1\n      sload\n      tag_50\n      swap1\n      tag_49\n      jump\t// in\n    tag_50:\n      dup1\n      iszero\n      tag_51\n      jumpi\n      dup1\n      0x1f\n      lt\n      tag_52\n      jumpi\n      0x0100\n      dup1\n      dup4\n      sload\n      div\n      mul\n      dup4\n      mstore\n      swap2\n      0x20\n      add\n      swap2\n      jump(tag_51)\n    tag_52:\n      dup3\n      add\n      swap2\n      swap1\n      0x00\n      mstore\n      keccak256(0x00, 0x20)\n      swap1\n    tag_53:\n      dup2\n      sload\n      dup2\n      mstore\n      swap1\n      0x01\n      add\n      swap1\n      0x20\n      add\n      dup1\n      dup4\n      gt\n      tag_53\n      jumpi\n      dup3\n      swap1\n      sub\n      0x1f\n      and\n      dup3\n      add\n      swap2\n    tag_51:\n      pop\n      pop\n      pop\n      pop\n      pop\n      swap1\n      dup1\n      0x01\n      add\n      sload\n      swap1\n      dup1\n      0x02\n      add\n      0x00\n      swap1\n      sload\n      swap1\n      0x0100\n      exp\n      swap1\n      div\n      0xffffffffffffffffffffffffffffffffffffffff\n      and\n      swap1\n      pop\n      dup4\n      jump\t// out\n        /* \"Structs.sol\":178:192  Car public car */\n    tag_16:\n      0x00\n      dup1\n      0x00\n      add\n      dup1\n      sload\n      tag_54\n      swap1\n      tag_49\n      jump\t// in\n    tag_54:\n      dup1\n      0x1f\n      add\n      0x20\n      dup1\n      swap2\n      div\n      mul\n      0x20\n      add\n      mload(0x40)\n      swap1\n      dup2\n      add\n      0x40\n      mstore\n      dup1\n      swap3\n      swap2\n      swap1\n      dup2\n      dup2\n      mstore\n      0x20\n      add\n      dup3\n      dup1\n      sload\n      tag_55\n      swap1\n      tag_49\n      jump\t// in\n    tag_55:\n      dup1\n      iszero\n      tag_56\n      jumpi\n      dup1\n      0x1f\n      lt\n      tag_57\n      jumpi\n      0x0100\n      dup1\n      dup4\n      sload\n      div\n      mul\n      dup4\n      mstore\n      swap2\n      0x20\n      add\n      swap2\n      jump(tag_56)\n    tag_57:\n      dup3\n      add\n      swap2\n      swap1\n      0x00\n      mstore\n      keccak256(0x00, 0x20)\n      swap1\n    tag_58:\n      dup2\n      sload\n      dup2\n      mstore\n      swap1\n      0x01\n      add\n      swap1\n      0x20\n      add\n      dup1\n      dup4\n      gt\n      tag_58\n      jumpi\n      dup3\n      swap1\n      sub\n      0x1f\n      and\n      dup3\n      add\n      swap2\n    tag_56:\n      pop\n      pop\n      pop\n      pop\n      pop\n      swap1\n      dup1\n      0x01\n      add\n      sload\n      swap1\n      dup1\n      0x02\n      add\n      0x00\n      swap1\n      sload\n      swap1\n      0x0100\n      exp\n      swap1\n      div\n      0xffffffffffffffffffffffffffffffffffffffff\n      and\n      swap1\n      pop\n      dup4\n      jump\t// out\n        /* \"Structs.sol\":199:216  Car[] public cars */\n    tag_21:\n      0x03\n      dup2\n      dup2\n      sload\n      dup2\n      lt\n      tag_59\n      jumpi\n      0x00\n      dup1\n      revert\n    tag_59:\n      swap1\n      0x00\n      mstore\n      keccak256(0x00, 0x20)\n      swap1\n      0x03\n      mul\n      add\n      0x00\n      swap2\n      pop\n      swap1\n      pop\n      dup1\n      0x00\n      add\n      dup1\n      sload\n      tag_61\n      swap1\n      tag_49\n      jump\t// in\n    tag_61:\n      dup1\n      0x1f\n      add\n      0x20\n      dup1\n      swap2\n      div\n      mul\n      0x20\n      add\n      mload(0x40)\n      swap1\n      dup2\n      add\n      0x40\n      mstore\n      dup1\n      swap3\n      swap2\n      swap1\n      dup2\n      dup2\n      mstore\n      0x20\n      add\n      dup3\n      dup1\n      sload\n      tag_62\n      swap1\n      tag_49\n      jump\t// in\n    tag_62:\n      dup1\n      iszero\n      tag_63\n      jumpi\n      dup1\n      0x1f\n      lt\n      tag_64\n      jumpi\n      0x0100\n      dup1\n      dup4\n      sload\n      div\n      mul\n      dup4\n      mstore\n      swap2\n      0x20\n      add\n      swap2\n      jump(tag_63)\n    tag_64:\n      dup3\n      add\n      swap2\n      swap1\n      0x00\n      mstore\n      keccak256(0x00, 0x20)\n      swap1\n    tag_65:\n      dup2\n      sload\n      dup2\n      mstore\n      swap1\n      0x01\n      add\n      swap1\n      0x20\n      add\n      dup1\n      dup4\n      gt\n      tag_65\n      jumpi\n      dup3\n      swap1\n      sub\n      0x1f\n      and\n      dup3\n      add\n      swap2\n    tag_63:\n      pop\n      pop\n      pop\n      pop\n      pop\n      swap1\n      dup1\n      0x01\n      add\n      sload\n      swap1\n      dup1\n      0x02\n      add\n      0x00\n      swap1\n      sload\n      swap1\n      0x0100\n      exp\n      swap1\n      div\n      0xffffffffffffffffffffffffffffffffffffffff\n      and\n      swap1\n      pop\n      dup4\n      jump\t// out\n    tag_25:\n      mload(0x40)\n      dup1\n      0x60\n      add\n      0x40\n      mstore\n      dup1\n      0x60\n      dup2\n      mstore\n      0x20\n      add\n      0x00\n      dup2\n      mstore\n      0x20\n      add\n      and(0xffffffffffffffffffffffffffffffffffffffff, 0x00)\n      dup2\n      mstore\n      pop\n      swap1\n      jump\t// out\n    tag_45:\n      pop\n      dup1\n      sload\n      tag_66\n      swap1\n      tag_49\n      jump\t// in\n    tag_66:\n      0x00\n      dup3\n      sstore\n      dup1\n      0x1f\n      lt\n      tag_68\n      jumpi\n      pop\n      jump(tag_67)\n    tag_68:\n      0x1f\n      add\n      0x20\n      swap1\n      div\n      swap1\n      0x00\n      mstore\n      keccak256(0x00, 0x20)\n      swap1\n      dup2\n      add\n      swap1\n      tag_69\n      swap2\n      swap1\n      tag_70\n      jump\t// in\n    tag_69:\n    tag_67:\n      pop\n      jump\t// out\n    tag_70:\n    tag_71:\n      dup1\n      dup3\n      gt\n      iszero\n      tag_72\n      jumpi\n      0x00\n      dup2\n      0x00\n      swap1\n      sstore\n      pop\n      0x01\n      add\n      jump(tag_71)\n    tag_72:\n      pop\n      swap1\n      jump\t// out\n        /* \"#utility.yul\":88:205   */\n    tag_74:\n        /* \"#utility.yul\":197:198   */\n      0x00\n        /* \"#utility.yul\":194:195   */\n      dup1\n        /* \"#utility.yul\":187:199   */\n      revert\n        /* \"#utility.yul\":334:460   */\n    tag_76:\n        /* \"#utility.yul\":371:378   */\n      0x00\n        /* \"#utility.yul\":411:453   */\n      0xffffffffffffffffffffffffffffffffffffffff\n        /* \"#utility.yul\":404:409   */\n      dup3\n        /* \"#utility.yul\":400:454   */\n      and\n        /* \"#utility.yul\":389:454   */\n      swap1\n      pop\n        /* \"#utility.yul\":334:460   */\n      swap2\n      swap1\n      pop\n      jump\t// out\n        /* \"#utility.yul\":466:562   */\n    tag_77:\n        /* \"#utility.yul\":503:510   */\n      0x00\n        /* \"#utility.yul\":532:556   */\n      tag_113\n        /* \"#utility.yul\":550:555   */\n      dup3\n        /* \"#utility.yul\":532:556   */\n      tag_76\n      jump\t// in\n    tag_113:\n        /* \"#utility.yul\":521:556   */\n      swap1\n      pop\n        /* \"#utility.yul\":466:562   */\n      swap2\n      swap1\n      pop\n      jump\t// out\n        /* \"#utility.yul\":568:690   */\n    tag_78:\n        /* \"#utility.yul\":641:665   */\n      tag_115\n        /* \"#utility.yul\":659:664   */\n      dup2\n        /* \"#utility.yul\":641:665   */\n      tag_77\n      jump\t// in\n    tag_115:\n        /* \"#utility.yul\":634:639   */\n      dup2\n        /* \"#utility.yul\":631:666   */\n      eq\n        /* \"#utility.yul\":621:684   */\n      tag_116\n      jumpi\n        /* \"#utility.yul\":680:681   */\n      0x00\n        /* \"#utility.yul\":677:678   */\n      dup1\n        /* \"#utility.yul\":670:682   */\n      revert\n        /* \"#utility.yul\":621:684   */\n    tag_116:\n        /* \"#utility.yul\":568:690   */\n      pop\n      jump\t// out\n        /* \"#utility.yul\":696:835   */\n    tag_79:\n        /* \"#utility.yul\":742:747   */\n      0x00\n        /* \"#utility.yul\":780:786   */\n      dup2\n        /* \"#utility.yul\":767:787   */\n      calldataload\n        /* \"#utility.yul\":758:787   */\n      swap1\n      pop\n        /* \"#utility.yul\":796:829   */\n      tag_118\n        /* \"#utility.yul\":823:828   */\n      dup2\n        /* \"#utility.yul\":796:829   */\n      tag_78\n      jump\t// in\n    tag_118:\n        /* \"#utility.yul\":696:835   */\n      swap3\n      swap2\n      pop\n      pop\n      jump\t// out\n        /* \"#utility.yul\":841:918   */\n    tag_80:\n        /* \"#utility.yul\":878:885   */\n      0x00\n        /* \"#utility.yul\":907:912   */\n      dup2\n        /* \"#utility.yul\":896:912   */\n      swap1\n      pop\n        /* \"#utility.yul\":841:918   */\n      swap2\n      swap1\n      pop\n      jump\t// out\n        /* \"#utility.yul\":924:1046   */\n    tag_81:\n        /* \"#utility.yul\":997:1021   */\n      tag_121\n        /* \"#utility.yul\":1015:1020   */\n      dup2\n        /* \"#utility.yul\":997:1021   */\n      tag_80\n      jump\t// in\n    tag_121:\n        /* \"#utility.yul\":990:995   */\n      dup2\n        /* \"#utility.yul\":987:1022   */\n      eq\n        /* \"#utility.yul\":977:1040   */\n      tag_122\n      jumpi\n        /* \"#utility.yul\":1036:1037   */\n      0x00\n        /* \"#utility.yul\":1033:1034   */\n      dup1\n        /* \"#utility.yul\":1026:1038   */\n      revert\n        /* \"#utility.yul\":977:1040   */\n    tag_122:\n        /* \"#utility.yul\":924:1046   */\n      pop\n      jump\t// out\n        /* \"#utility.yul\":1052:1191   */\n    tag_82:\n        /* \"#utility.yul\":1098:1103   */\n      0x00\n        /* \"#utility.yul\":1136:1142   */\n      dup2\n        /* \"#utility.yul\":1123:1143   */\n      calldataload\n        /* \"#utility.yul\":1114:1143   */\n      swap1\n      pop\n        /* \"#utility.yul\":1152:1185   */\n      tag_124\n        /* \"#utility.yul\":1179:1184   */\n      dup2\n        /* \"#utility.yul\":1152:1185   */\n      tag_81\n      jump\t// in\n    tag_124:\n        /* \"#utility.yul\":1052:1191   */\n      swap3\n      swap2\n      pop\n      pop\n      jump\t// out\n        /* \"#utility.yul\":1197:1671   */\n    tag_11:\n        /* \"#utility.yul\":1265:1271   */\n      0x00\n        /* \"#utility.yul\":1273:1279   */\n      dup1\n        /* \"#utility.yul\":1322:1324   */\n      0x40\n        /* \"#utility.yul\":1310:1319   */\n      dup4\n        /* \"#utility.yul\":1301:1308   */\n      dup6\n        /* \"#utility.yul\":1297:1320   */\n      sub\n        /* \"#utility.yul\":1293:1325   */\n      slt\n        /* \"#utility.yul\":1290:1409   */\n      iszero\n      tag_126\n      jumpi\n        /* \"#utility.yul\":1328:1407   */\n      tag_127\n      tag_74\n      jump\t// in\n    tag_127:\n        /* \"#utility.yul\":1290:1409   */\n    tag_126:\n        /* \"#utility.yul\":1448:1449   */\n      0x00\n        /* \"#utility.yul\":1473:1526   */\n      tag_128\n        /* \"#utility.yul\":1518:1525   */\n      dup6\n        /* \"#utility.yul\":1509:1515   */\n      dup3\n        /* \"#utility.yul\":1498:1507   */\n      dup7\n        /* \"#utility.yul\":1494:1516   */\n      add\n        /* \"#utility.yul\":1473:1526   */\n      tag_79\n      jump\t// in\n    tag_128:\n        /* \"#utility.yul\":1463:1526   */\n      swap3\n      pop\n        /* \"#utility.yul\":1419:1536   */\n      pop\n        /* \"#utility.yul\":1575:1577   */\n      0x20\n        /* \"#utility.yul\":1601:1654   */\n      tag_129\n        /* \"#utility.yul\":1646:1653   */\n      dup6\n        /* \"#utility.yul\":1637:1643   */\n      dup3\n        /* \"#utility.yul\":1626:1635   */\n      dup7\n        /* \"#utility.yul\":1622:1644   */\n      add\n        /* \"#utility.yul\":1601:1654   */\n      tag_82\n      jump\t// in\n    tag_129:\n        /* \"#utility.yul\":1591:1654   */\n      swap2\n      pop\n        /* \"#utility.yul\":1546:1664   */\n      pop\n        /* \"#utility.yul\":1197:1671   */\n      swap3\n      pop\n      swap3\n      swap1\n      pop\n      jump\t// out\n        /* \"#utility.yul\":1677:1776   */\n    tag_83:\n        /* \"#utility.yul\":1729:1735   */\n      0x00\n        /* \"#utility.yul\":1763:1768   */\n      dup2\n        /* \"#utility.yul\":1757:1769   */\n      mload\n        /* \"#utility.yul\":1747:1769   */\n      swap1\n      pop\n        /* \"#utility.yul\":1677:1776   */\n      swap2\n      swap1\n      pop\n      jump\t// out\n        /* \"#utility.yul\":1782:1951   */\n    tag_84:\n        /* \"#utility.yul\":1866:1877   */\n      0x00\n        /* \"#utility.yul\":1900:1906   */\n      dup3\n        /* \"#utility.yul\":1895:1898   */\n      dup3\n        /* \"#utility.yul\":1888:1907   */\n      mstore\n        /* \"#utility.yul\":1940:1944   */\n      0x20\n        /* \"#utility.yul\":1935:1938   */\n      dup3\n        /* \"#utility.yul\":1931:1945   */\n      add\n        /* \"#utility.yul\":1916:1945   */\n      swap1\n      pop\n        /* \"#utility.yul\":1782:1951   */\n      swap3\n      swap2\n      pop\n      pop\n      jump\t// out\n        /* \"#utility.yul\":1957:2096   */\n    tag_85:\n        /* \"#utility.yul\":2046:2052   */\n      dup3\n        /* \"#utility.yul\":2041:2044   */\n      dup2\n        /* \"#utility.yul\":2036:2039   */\n      dup4\n        /* \"#utility.yul\":2030:2053   */\n      mcopy\n        /* \"#utility.yul\":2087:2088   */\n      0x00\n        /* \"#utility.yul\":2078:2084   */\n      dup4\n        /* \"#utility.yul\":2073:2076   */\n      dup4\n        /* \"#utility.yul\":2069:2085   */\n      add\n        /* \"#utility.yul\":2062:2089   */\n      mstore\n        /* \"#utility.yul\":1957:2096   */\n      pop\n      pop\n      pop\n      jump\t// out\n        /* \"#utility.yul\":2102:2204   */\n    tag_86:\n        /* \"#utility.yul\":2143:2149   */\n      0x00\n        /* \"#utility.yul\":2194:2196   */\n      0x1f\n        /* \"#utility.yul\":2190:2197   */\n      not\n        /* \"#utility.yul\":2185:2187   */\n      0x1f\n        /* \"#utility.yul\":2178:2183   */\n      dup4\n        /* \"#utility.yul\":2174:2188   */\n      add\n        /* \"#utility.yul\":2170:2198   */\n      and\n        /* \"#utility.yul\":2160:2198   */\n      swap1\n      pop\n        /* \"#utility.yul\":2102:2204   */\n      swap2\n      swap1\n      pop\n      jump\t// out\n        /* \"#utility.yul\":2210:2587   */\n    tag_87:\n        /* \"#utility.yul\":2298:2301   */\n      0x00\n        /* \"#utility.yul\":2326:2365   */\n      tag_135\n        /* \"#utility.yul\":2359:2364   */\n      dup3\n        /* \"#utility.yul\":2326:2365   */\n      tag_83\n      jump\t// in\n    tag_135:\n        /* \"#utility.yul\":2381:2452   */\n      tag_136\n        /* \"#utility.yul\":2445:2451   */\n      dup2\n        /* \"#utility.yul\":2440:2443   */\n      dup6\n        /* \"#utility.yul\":2381:2452   */\n      tag_84\n      jump\t// in\n    tag_136:\n        /* \"#utility.yul\":2374:2452   */\n      swap4\n      pop\n        /* \"#utility.yul\":2461:2526   */\n      tag_137\n        /* \"#utility.yul\":2519:2525   */\n      dup2\n        /* \"#utility.yul\":2514:2517   */\n      dup6\n        /* \"#utility.yul\":2507:2511   */\n      0x20\n        /* \"#utility.yul\":2500:2505   */\n      dup7\n        /* \"#utility.yul\":2496:2512   */\n      add\n        /* \"#utility.yul\":2461:2526   */\n      tag_85\n      jump\t// in\n    tag_137:\n        /* \"#utility.yul\":2551:2580   */\n      tag_138\n        /* \"#utility.yul\":2573:2579   */\n      dup2\n        /* \"#utility.yul\":2551:2580   */\n      tag_86\n      jump\t// in\n    tag_138:\n        /* \"#utility.yul\":2546:2549   */\n      dup5\n        /* \"#utility.yul\":2542:2581   */\n      add\n        /* \"#utility.yul\":2535:2581   */\n      swap2\n      pop\n        /* \"#utility.yul\":2302:2587   */\n      pop\n        /* \"#utility.yul\":2210:2587   */\n      swap3\n      swap2\n      pop\n      pop\n      jump\t// out\n        /* \"#utility.yul\":2593:2711   */\n    tag_88:\n        /* \"#utility.yul\":2680:2704   */\n      tag_140\n        /* \"#utility.yul\":2698:2703   */\n      dup2\n        /* \"#utility.yul\":2680:2704   */\n      tag_80\n      jump\t// in\n    tag_140:\n        /* \"#utility.yul\":2675:2678   */\n      dup3\n        /* \"#utility.yul\":2668:2705   */\n      mstore\n        /* \"#utility.yul\":2593:2711   */\n      pop\n      pop\n      jump\t// out\n        /* \"#utility.yul\":2717:2835   */\n    tag_89:\n        /* \"#utility.yul\":2804:2828   */\n      tag_142\n        /* \"#utility.yul\":2822:2827   */\n      dup2\n        /* \"#utility.yul\":2804:2828   */\n      tag_77\n      jump\t// in\n    tag_142:\n        /* \"#utility.yul\":2799:2802   */\n      dup3\n        /* \"#utility.yul\":2792:2829   */\n      mstore\n        /* \"#utility.yul\":2717:2835   */\n      pop\n      pop\n      jump\t// out\n        /* \"#utility.yul\":2841:3374   */\n    tag_14:\n        /* \"#utility.yul\":3010:3014   */\n      0x00\n        /* \"#utility.yul\":3048:3050   */\n      0x60\n        /* \"#utility.yul\":3037:3046   */\n      dup3\n        /* \"#utility.yul\":3033:3051   */\n      add\n        /* \"#utility.yul\":3025:3051   */\n      swap1\n      pop\n        /* \"#utility.yul\":3097:3106   */\n      dup2\n        /* \"#utility.yul\":3091:3095   */\n      dup2\n        /* \"#utility.yul\":3087:3107   */\n      sub\n        /* \"#utility.yul\":3083:3084   */\n      0x00\n        /* \"#utility.yul\":3072:3081   */\n      dup4\n        /* \"#utility.yul\":3068:3085   */\n      add\n        /* \"#utility.yul\":3061:3108   */\n      mstore\n        /* \"#utility.yul\":3125:3203   */\n      tag_144\n        /* \"#utility.yul\":3198:3202   */\n      dup2\n        /* \"#utility.yul\":3189:3195   */\n      dup7\n        /* \"#utility.yul\":3125:3203   */\n      tag_87\n      jump\t// in\n    tag_144:\n        /* \"#utility.yul\":3117:3203   */\n      swap1\n      pop\n        /* \"#utility.yul\":3213:3285   */\n      tag_145\n        /* \"#utility.yul\":3281:3283   */\n      0x20\n        /* \"#utility.yul\":3270:3279   */\n      dup4\n        /* \"#utility.yul\":3266:3284   */\n      add\n        /* \"#utility.yul\":3257:3263   */\n      dup6\n        /* \"#utility.yul\":3213:3285   */\n      tag_88\n      jump\t// in\n    tag_145:\n        /* \"#utility.yul\":3295:3367   */\n      tag_146\n        /* \"#utility.yul\":3363:3365   */\n      0x40\n        /* \"#utility.yul\":3352:3361   */\n      dup4\n        /* \"#utility.yul\":3348:3366   */\n      add\n        /* \"#utility.yul\":3339:3345   */\n      dup5\n        /* \"#utility.yul\":3295:3367   */\n      tag_89\n      jump\t// in\n    tag_146:\n        /* \"#utility.yul\":2841:3374   */\n      swap5\n      swap4\n      pop\n      pop\n      pop\n      pop\n      jump\t// out\n        /* \"#utility.yul\":3380:3709   */\n    tag_20:\n        /* \"#utility.yul\":3439:3445   */\n      0x00\n        /* \"#utility.yul\":3488:3490   */\n      0x20\n        /* \"#utility.yul\":3476:3485   */\n      dup3\n        /* \"#utility.yul\":3467:3474   */\n      dup5\n        /* \"#utility.yul\":3463:3486   */\n      sub\n        /* \"#utility.yul\":3459:3491   */\n      slt\n        /* \"#utility.yul\":3456:3575   */\n      iszero\n      tag_148\n      jumpi\n        /* \"#utility.yul\":3494:3573   */\n      tag_149\n      tag_74\n      jump\t// in\n    tag_149:\n        /* \"#utility.yul\":3456:3575   */\n    tag_148:\n        /* \"#utility.yul\":3614:3615   */\n      0x00\n        /* \"#utility.yul\":3639:3692   */\n      tag_150\n        /* \"#utility.yul\":3684:3691   */\n      dup5\n        /* \"#utility.yul\":3675:3681   */\n      dup3\n        /* \"#utility.yul\":3664:3673   */\n      dup6\n        /* \"#utility.yul\":3660:3682   */\n      add\n        /* \"#utility.yul\":3639:3692   */\n      tag_82\n      jump\t// in\n    tag_150:\n        /* \"#utility.yul\":3629:3692   */\n      swap2\n      pop\n        /* \"#utility.yul\":3585:3702   */\n      pop\n        /* \"#utility.yul\":3380:3709   */\n      swap3\n      swap2\n      pop\n      pop\n      jump\t// out\n        /* \"#utility.yul\":3715:3895   */\n    tag_90:\n        /* \"#utility.yul\":3763:3840   */\n      0x4e487b7100000000000000000000000000000000000000000000000000000000\n        /* \"#utility.yul\":3760:3761   */\n      0x00\n        /* \"#utility.yul\":3753:3841   */\n      mstore\n        /* \"#utility.yul\":3860:3864   */\n      0x41\n        /* \"#utility.yul\":3857:3858   */\n      0x04\n        /* \"#utility.yul\":3850:3865   */\n      mstore\n        /* \"#utility.yul\":3884:3888   */\n      0x24\n        /* \"#utility.yul\":3881:3882   */\n      0x00\n        /* \"#utility.yul\":3874:3889   */\n      revert\n        /* \"#utility.yul\":3901:4081   */\n    tag_91:\n        /* \"#utility.yul\":3949:4026   */\n      0x4e487b7100000000000000000000000000000000000000000000000000000000\n        /* \"#utility.yul\":3946:3947   */\n      0x00\n        /* \"#utility.yul\":3939:4027   */\n      mstore\n        /* \"#utility.yul\":4046:4050   */\n      0x22\n        /* \"#utility.yul\":4043:4044   */\n      0x04\n        /* \"#utility.yul\":4036:4051   */\n      mstore\n        /* \"#utility.yul\":4070:4074   */\n      0x24\n        /* \"#utility.yul\":4067:4068   */\n      0x00\n        /* \"#utility.yul\":4060:4075   */\n      revert\n        /* \"#utility.yul\":4087:4407   */\n    tag_49:\n        /* \"#utility.yul\":4131:4137   */\n      0x00\n        /* \"#utility.yul\":4168:4169   */\n      0x02\n        /* \"#utility.yul\":4162:4166   */\n      dup3\n        /* \"#utility.yul\":4158:4170   */\n      div\n        /* \"#utility.yul\":4148:4170   */\n      swap1\n      pop\n        /* \"#utility.yul\":4215:4216   */\n      0x01\n        /* \"#utility.yul\":4209:4213   */\n      dup3\n        /* \"#utility.yul\":4205:4217   */\n      and\n        /* \"#utility.yul\":4236:4254   */\n      dup1\n        /* \"#utility.yul\":4226:4307   */\n      tag_154\n      jumpi\n        /* \"#utility.yul\":4292:4296   */\n      0x7f\n        /* \"#utility.yul\":4284:4290   */\n      dup3\n        /* \"#utility.yul\":4280:4297   */\n      and\n        /* \"#utility.yul\":4270:4297   */\n      swap2\n      pop\n        /* \"#utility.yul\":4226:4307   */\n    tag_154:\n        /* \"#utility.yul\":4354:4356   */\n      0x20\n        /* \"#utility.yul\":4346:4352   */\n      dup3\n        /* \"#utility.yul\":4343:4357   */\n      lt\n        /* \"#utility.yul\":4323:4341   */\n      dup2\n        /* \"#utility.yul\":4320:4358   */\n      sub\n        /* \"#utility.yul\":4317:4401   */\n      tag_155\n      jumpi\n        /* \"#utility.yul\":4373:4391   */\n      tag_156\n      tag_91\n      jump\t// in\n    tag_156:\n        /* \"#utility.yul\":4317:4401   */\n    tag_155:\n        /* \"#utility.yul\":4138:4407   */\n      pop\n        /* \"#utility.yul\":4087:4407   */\n      swap2\n      swap1\n      pop\n      jump\t// out\n        /* \"#utility.yul\":4413:4554   */\n    tag_92:\n        /* \"#utility.yul\":4462:4466   */\n      0x00\n        /* \"#utility.yul\":4485:4488   */\n      dup2\n        /* \"#utility.yul\":4477:4488   */\n      swap1\n      pop\n        /* \"#utility.yul\":4508:4511   */\n      dup2\n        /* \"#utility.yul\":4505:4506   */\n      0x00\n        /* \"#utility.yul\":4498:4512   */\n      mstore\n        /* \"#utility.yul\":4542:4546   */\n      0x20\n        /* \"#utility.yul\":4539:4540   */\n      0x00\n        /* \"#utility.yul\":4529:4547   */\n      keccak256\n        /* \"#utility.yul\":4521:4547   */\n      swap1\n      pop\n        /* \"#utility.yul\":4413:4554   */\n      swap2\n      swap1\n      pop\n      jump\t// out\n        /* \"#utility.yul\":4560:4653   */\n    tag_93:\n        /* \"#utility.yul\":4597:4603   */\n      0x00\n        /* \"#utility.yul\":4644:4646   */\n      0x20\n        /* \"#utility.yul\":4639:4641   */\n      0x1f\n        /* \"#utility.yul\":4632:4637   */\n      dup4\n        /* \"#utility.yul\":4628:4642   */\n      add\n        /* \"#utility.yul\":4624:4647   */\n      div\n        /* \"#utility.yul\":4614:4647   */\n      swap1\n      pop\n        /* \"#utility.yul\":4560:4653   */\n      swap2\n      swap1\n      pop\n      jump\t// out\n        /* \"#utility.yul\":4659:4766   */\n    tag_94:\n        /* \"#utility.yul\":4703:4711   */\n      0x00\n        /* \"#utility.yul\":4753:4758   */\n      dup3\n        /* \"#utility.yul\":4747:4751   */\n      dup3\n        /* \"#utility.yul\":4743:4759   */\n      shl\n        /* \"#utility.yul\":4722:4759   */\n      swap1\n      pop\n        /* \"#utility.yul\":4659:4766   */\n      swap3\n      swap2\n      pop\n      pop\n      jump\t// out\n        /* \"#utility.yul\":4772:5165   */\n    tag_95:\n        /* \"#utility.yul\":4841:4847   */\n      0x00\n        /* \"#utility.yul\":4891:4892   */\n      0x08\n        /* \"#utility.yul\":4879:4889   */\n      dup4\n        /* \"#utility.yul\":4875:4893   */\n      mul\n        /* \"#utility.yul\":4914:5011   */\n      tag_161\n        /* \"#utility.yul\":4944:5010   */\n      0xffffffffffffffffffffffffffffffffffffffffffffffffffffffffffffffff\n        /* \"#utility.yul\":4933:4942   */\n      dup3\n        /* \"#utility.yul\":4914:5011   */\n      tag_94\n      jump\t// in\n    tag_161:\n        /* \"#utility.yul\":5032:5071   */\n      tag_162\n        /* \"#utility.yul\":5062:5070   */\n      dup7\n        /* \"#utility.yul\":5051:5060   */\n      dup4\n        /* \"#utility.yul\":5032:5071   */\n      tag_94\n      jump\t// in\n    tag_162:\n        /* \"#utility.yul\":5020:5071   */\n      swap6\n      pop\n        /* \"#utility.yul\":5104:5108   */\n      dup1\n        /* \"#utility.yul\":5100:5109   */\n      not\n        /* \"#utility.yul\":5093:5098   */\n      dup5\n        /* \"#utility.yul\":5089:5110   */\n      and\n        /* \"#utility.yul\":5080:5110   */\n      swap4\n      pop\n        /* \"#utility.yul\":5153:5157   */\n      dup1\n        /* \"#utility.yul\":5143:5151   */\n      dup7\n        /* \"#utility.yul\":5139:5158   */\n      and\n        /* \"#utility.yul\":5132:5137   */\n      dup5\n        /* \"#utility.yul\":5129:5159   */\n      or\n        /* \"#utility.yul\":5119:5159   */\n      swap3\n      pop\n        /* \"#utility.yul\":4848:5165   */\n      pop\n      pop\n        /* \"#utility.yul\":4772:5165   */\n      swap4\n      swap3\n      pop\n      pop\n      pop\n      jump\t// out\n        /* \"#utility.yul\":5171:5231   */\n    tag_96:\n        /* \"#utility.yul\":5199:5202   */\n      0x00\n        /* \"#utility.yul\":5220:5225   */\n      dup2\n        /* \"#utility.yul\":5213:5225   */\n      swap1\n      pop\n        /* \"#utility.yul\":5171:5231   */\n      swap2\n      swap1\n      pop\n      jump\t// out\n        /* \"#utility.yul\":5237:5379   */\n    tag_97:\n        /* \"#utility.yul\":5287:5296   */\n      0x00\n        /* \"#utility.yul\":5320:5373   */\n      tag_165\n        /* \"#utility.yul\":5338:5372   */\n      tag_166\n        /* \"#utility.yul\":5347:5371   */\n      tag_167\n        /* \"#utility.yul\":5365:5370   */\n      dup5\n        /* \"#utility.yul\":5347:5371   */\n      tag_80\n      jump\t// in\n    tag_167:\n        /* \"#utility.yul\":5338:5372   */\n      tag_96\n      jump\t// in\n    tag_166:\n        /* \"#utility.yul\":5320:5373   */\n      tag_80\n      jump\t// in\n    tag_165:\n        /* \"#utility.yul\":5307:5373   */\n      swap1\n      pop\n        /* \"#utility.yul\":5237:5379   */\n      swap2\n      swap1\n      pop\n      jump\t// out\n        /* \"#utility.yul\":5385:5460   */\n    tag_98:\n        /* \"#utility.yul\":5428:5431   */\n      0x00\n        /* \"#utility.yul\":5449:5454   */\n      dup2\n        /* \"#utility.yul\":5442:5454   */\n      swap1\n      pop\n        /* \"#utility.yul\":5385:5460   */\n      swap2\n      swap1\n      pop\n      jump\t// out\n        /* \"#utility.yul\":5466:5735   */\n    tag_99:\n        /* \"#utility.yul\":5576:5615   */\n      tag_170\n        /* \"#utility.yul\":5607:5614   */\n      dup4\n        /* \"#utility.yul\":5576:5615   */\n      tag_97\n      jump\t// in\n    tag_170:\n        /* \"#utility.yul\":5637:5728   */\n      tag_171\n        /* \"#utility.yul\":5686:5727   */\n      tag_172\n        /* \"#utility.yul\":5710:5726   */\n      dup3\n        /* \"#utility.yul\":5686:5727   */\n      tag_98\n      jump\t// in\n    tag_172:\n        /* \"#utility.yul\":5678:5684   */\n      dup5\n        /* \"#utility.yul\":5671:5675   */\n      dup5\n        /* \"#utility.yul\":5665:5676   */\n      sload\n        /* \"#utility.yul\":5637:5728   */\n      tag_95\n      jump\t// in\n    tag_171:\n        /* \"#utility.yul\":5631:5635   */\n      dup3\n        /* \"#utility.yul\":5624:5729   */\n      sstore\n        /* \"#utility.yul\":5542:5735   */\n      pop\n        /* \"#utility.yul\":5466:5735   */\n      pop\n      pop\n      pop\n      jump\t// out\n        /* \"#utility.yul\":5741:5814   */\n    tag_100:\n        /* \"#utility.yul\":5786:5789   */\n      0x00\n        /* \"#utility.yul\":5741:5814   */\n      swap1\n      jump\t// out\n        /* \"#utility.yul\":5820:6009   */\n    tag_101:\n        /* \"#utility.yul\":5897:5929   */\n      tag_175\n      tag_100\n      jump\t// in\n    tag_175:\n        /* \"#utility.yul\":5938:6003   */\n      tag_176\n        /* \"#utility.yul\":5996:6002   */\n      dup2\n        /* \"#utility.yul\":5988:5994   */\n      dup5\n        /* \"#utility.yul\":5982:5986   */\n      dup5\n        /* \"#utility.yul\":5938:6003   */\n      tag_99\n      jump\t// in\n    tag_176:\n        /* \"#utility.yul\":5873:6009   */\n      pop\n        /* \"#utility.yul\":5820:6009   */\n      pop\n      pop\n      jump\t// out\n        /* \"#utility.yul\":6015:6201   */\n    tag_102:\n        /* \"#utility.yul\":6075:6195   */\n    tag_178:\n        /* \"#utility.yul\":6092:6095   */\n      dup2\n        /* \"#utility.yul\":6085:6090   */\n      dup2\n        /* \"#utility.yul\":6082:6096   */\n      lt\n        /* \"#utility.yul\":6075:6195   */\n      iszero\n      tag_180\n      jumpi\n        /* \"#utility.yul\":6146:6185   */\n      tag_181\n        /* \"#utility.yul\":6183:6184   */\n      0x00\n        /* \"#utility.yul\":6176:6181   */\n      dup3\n        /* \"#utility.yul\":6146:6185   */\n      tag_101\n      jump\t// in\n    tag_181:\n        /* \"#utility.yul\":6119:6120   */\n      0x01\n        /* \"#utility.yul\":6112:6117   */\n      dup2\n        /* \"#utility.yul\":6108:6121   */\n      add\n        /* \"#utility.yul\":6099:6121   */\n      swap1\n      pop\n        /* \"#utility.yul\":6075:6195   */\n      jump(tag_178)\n    tag_180:\n        /* \"#utility.yul\":6015:6201   */\n      pop\n      pop\n      jump\t// out\n        /* \"#utility.yul\":6207:6750   */\n    tag_103:\n        /* \"#utility.yul\":6308:6310   */\n      0x1f\n        /* \"#utility.yul\":6303:6306   */\n      dup3\n        /* \"#utility.yul\":6300:6311   */\n      gt\n        /* \"#utility.yul\":6297:6743   */\n      iszero\n      tag_183\n      jumpi\n        /* \"#utility.yul\":6342:6380   */\n      tag_184\n        /* \"#utility.yul\":6374:6379   */\n      dup2\n        /* \"#utility.yul\":6342:6380   */\n      tag_92\n      jump\t// in\n    tag_184:\n        /* \"#utility.yul\":6426:6455   */\n      tag_185\n        /* \"#utility.yul\":6444:6454   */\n      dup5\n        /* \"#utility.yul\":6426:6455   */\n      tag_93\n      jump\t// in\n    tag_185:\n        /* \"#utility.yul\":6416:6424   */\n      dup2\n        /* \"#utility.yul\":6412:6456   */\n      add\n        /* \"#utility.yul\":6609:6611   */\n      0x20\n        /* \"#utility.yul\":6597:6607   */\n      dup6\n        /* \"#utility.yul\":6594:6612   */\n      lt\n        /* \"#utility.yul\":6591:6640   */\n      iszero\n      tag_186\n      jumpi\n        /* \"#utility.yul\":6630:6638   */\n      dup2\n        /* \"#utility.yul\":6615:6638   */\n      swap1\n      pop\n        /* \"#utility.yul\":6591:6640   */\n    tag_186:\n        /* \"#utility.yul\":6653:6733   */\n      tag_187\n        /* \"#utility.yul\":6709:6731   */\n      tag_188\n        /* \"#utility.yul\":6727:6730   */\n      dup6\n        /* \"#utility.yul\":6709:6731   */\n      tag_93\n      jump\t// in\n    tag_188:\n        /* \"#utility.yul\":6699:6707   */\n      dup4\n        /* \"#utility.yul\":6695:6732   */\n      add\n        /* \"#utility.yul\":6682:6693   */\n      dup3\n        /* \"#utility.yul\":6653:6733   */\n      tag_102\n      jump\t// in\n    tag_187:\n        /* \"#utility.yul\":6312:6743   */\n      pop\n      pop\n        /* \"#utility.yul\":6297:6743   */\n    tag_183:\n        /* \"#utility.yul\":6207:6750   */\n      pop\n      pop\n      pop\n      jump\t// out\n        /* \"#utility.yul\":6756:6873   */\n    tag_104:\n        /* \"#utility.yul\":6810:6818   */\n      0x00\n        /* \"#utility.yul\":6860:6865   */\n      dup3\n        /* \"#utility.yul\":6854:6858   */\n      dup3\n        /* \"#utility.yul\":6850:6866   */\n      shr\n        /* \"#utility.yul\":6829:6866   */\n      swap1\n      pop\n        /* \"#utility.yul\":6756:6873   */\n      swap3\n      swap2\n      pop\n      pop\n      jump\t// out\n        /* \"#utility.yul\":6879:7048   */\n    tag_105:\n        /* \"#utility.yul\":6923:6929   */\n      0x00\n        /* \"#utility.yul\":6956:7007   */\n      tag_191\n        /* \"#utility.yul\":7004:7005   */\n      0x00\n        /* \"#utility.yul\":7000:7006   */\n      not\n        /* \"#utility.yul\":6992:6997   */\n      dup5\n        /* \"#utility.yul\":6989:6990   */\n      0x08\n        /* \"#utility.yul\":6985:6998   */\n      mul\n        /* \"#utility.yul\":6956:7007   */\n      tag_104\n      jump\t// in\n    tag_191:\n        /* \"#utility.yul\":6952:7008   */\n      not\n        /* \"#utility.yul\":7037:7041   */\n      dup1\n        /* \"#utility.yul\":7031:7035   */\n      dup4\n        /* \"#utility.yul\":7027:7042   */\n      and\n        /* \"#utility.yul\":7017:7042   */\n      swap2\n      pop\n        /* \"#utility.yul\":6930:7048   */\n      pop\n        /* \"#utility.yul\":6879:7048   */\n      swap3\n      swap2\n      pop\n      pop\n      jump\t// out\n        /* \"#utility.yul\":7053:7348   */\n    tag_106:\n        /* \"#utility.yul\":7129:7133   */\n      0x00\n        /* \"#utility.yul\":7275:7304   */\n      tag_193\n        /* \"#utility.yul\":7300:7303   */\n      dup4\n        /* \"#utility.yul\":7294:7298   */\n      dup4\n        /* \"#utility.yul\":7275:7304   */\n      tag_105\n      jump\t// in\n    tag_193:\n        /* \"#utility.yul\":7267:7304   */\n      swap2\n      pop\n        /* \"#utility.yul\":7337:7340   */\n      dup3\n        /* \"#utility.yul\":7334:7335   */\n      0x02\n        /* \"#utility.yul\":7330:7341   */\n      mul\n        /* \"#utility.yul\":7324:7328   */\n      dup3\n        /* \"#utility.yul\":7321:7342   */\n      or\n        /* \"#utility.yul\":7313:7342   */\n      swap1\n      pop\n        /* \"#utility.yul\":7053:7348   */\n      swap3\n      swap2\n      pop\n      pop\n      jump\t// out\n        /* \"#utility.yul\":7353:8748   */\n    tag_28:\n        /* \"#utility.yul\":7470:7507   */\n      tag_195\n        /* \"#utility.yul\":7503:7506   */\n      dup3\n        /* \"#utility.yul\":7470:7507   */\n      tag_83\n      jump\t// in\n    tag_195:\n        /* \"#utility.yul\":7572:7590   */\n      0xffffffffffffffff\n        /* \"#utility.yul\":7564:7570   */\n      dup2\n        /* \"#utility.yul\":7561:7591   */\n      gt\n        /* \"#utility.yul\":7558:7614   */\n      iszero\n      tag_196\n      jumpi\n        /* \"#utility.yul\":7594:7612   */\n      tag_197\n      tag_90\n      jump\t// in\n    tag_197:\n        /* \"#utility.yul\":7558:7614   */\n    tag_196:\n        /* \"#utility.yul\":7638:7676   */\n      tag_198\n        /* \"#utility.yul\":7670:7674   */\n      dup3\n        /* \"#utility.yul\":7664:7675   */\n      sload\n        /* \"#utility.yul\":7638:7676   */\n      tag_49\n      jump\t// in\n    tag_198:\n        /* \"#utility.yul\":7723:7790   */\n      tag_199\n        /* \"#utility.yul\":7783:7789   */\n      dup3\n        /* \"#utility.yul\":7775:7781   */\n      dup3\n        /* \"#utility.yul\":7769:7773   */\n      dup6\n        /* \"#utility.yul\":7723:7790   */\n      tag_103\n      jump\t// in\n    tag_199:\n        /* \"#utility.yul\":7817:7818   */\n      0x00\n        /* \"#utility.yul\":7841:7845   */\n      0x20\n        /* \"#utility.yul\":7828:7845   */\n      swap1\n      pop\n        /* \"#utility.yul\":7873:7875   */\n      0x1f\n        /* \"#utility.yul\":7865:7871   */\n      dup4\n        /* \"#utility.yul\":7862:7876   */\n      gt\n        /* \"#utility.yul\":7890:7891   */\n      0x01\n        /* \"#utility.yul\":7885:8503   */\n      dup2\n      eq\n      tag_201\n      jumpi\n        /* \"#utility.yul\":8547:8548   */\n      0x00\n        /* \"#utility.yul\":8564:8570   */\n      dup5\n        /* \"#utility.yul\":8561:8638   */\n      iszero\n      tag_202\n      jumpi\n        /* \"#utility.yul\":8613:8622   */\n      dup3\n        /* \"#utility.yul\":8608:8611   */\n      dup8\n        /* \"#utility.yul\":8604:8623   */\n      add\n        /* \"#utility.yul\":8598:8624   */\n      mload\n        /* \"#utility.yul\":8589:8624   */\n      swap1\n      pop\n        /* \"#utility.yul\":8561:8638   */\n    tag_202:\n        /* \"#utility.yul\":8664:8731   */\n      tag_203\n        /* \"#utility.yul\":8724:8730   */\n      dup6\n        /* \"#utility.yul\":8717:8722   */\n      dup3\n        /* \"#utility.yul\":8664:8731   */\n      tag_106\n      jump\t// in\n    tag_203:\n        /* \"#utility.yul\":8658:8662   */\n      dup7\n        /* \"#utility.yul\":8651:8732   */\n      sstore\n        /* \"#utility.yul\":8520:8742   */\n      pop\n        /* \"#utility.yul\":7855:8742   */\n      jump(tag_200)\n        /* \"#utility.yul\":7885:8503   */\n    tag_201:\n        /* \"#utility.yul\":7937:7941   */\n      0x1f\n        /* \"#utility.yul\":7933:7942   */\n      not\n        /* \"#utility.yul\":7925:7931   */\n      dup5\n        /* \"#utility.yul\":7921:7943   */\n      and\n        /* \"#utility.yul\":7971:8008   */\n      tag_204\n        /* \"#utility.yul\":8003:8007   */\n      dup7\n        /* \"#utility.yul\":7971:8008   */\n      tag_92\n      jump\t// in\n    tag_204:\n        /* \"#utility.yul\":8030:8031   */\n      0x00\n        /* \"#utility.yul\":8044:8252   */\n    tag_205:\n        /* \"#utility.yul\":8058:8065   */\n      dup3\n        /* \"#utility.yul\":8055:8056   */\n      dup2\n        /* \"#utility.yul\":8052:8066   */\n      lt\n        /* \"#utility.yul\":8044:8252   */\n      iszero\n      tag_207\n      jumpi\n        /* \"#utility.yul\":8137:8146   */\n      dup5\n        /* \"#utility.yul\":8132:8135   */\n      dup10\n        /* \"#utility.yul\":8128:8147   */\n      add\n        /* \"#utility.yul\":8122:8148   */\n      mload\n        /* \"#utility.yul\":8114:8120   */\n      dup3\n        /* \"#utility.yul\":8107:8149   */\n      sstore\n        /* \"#utility.yul\":8188:8189   */\n      0x01\n        /* \"#utility.yul\":8180:8186   */\n      dup3\n        /* \"#utility.yul\":8176:8190   */\n      add\n        /* \"#utility.yul\":8166:8190   */\n      swap2\n      pop\n        /* \"#utility.yul\":8235:8237   */\n      0x20\n        /* \"#utility.yul\":8224:8233   */\n      dup6\n        /* \"#utility.yul\":8220:8238   */\n      add\n        /* \"#utility.yul\":8207:8238   */\n      swap5\n      pop\n        /* \"#utility.yul\":8081:8085   */\n      0x20\n        /* \"#utility.yul\":8078:8079   */\n      dup2\n        /* \"#utility.yul\":8074:8086   */\n      add\n        /* \"#utility.yul\":8069:8086   */\n      swap1\n      pop\n        /* \"#utility.yul\":8044:8252   */\n      jump(tag_205)\n    tag_207:\n        /* \"#utility.yul\":8280:8286   */\n      dup7\n        /* \"#utility.yul\":8271:8278   */\n      dup4\n        /* \"#utility.yul\":8268:8287   */\n      lt\n        /* \"#utility.yul\":8265:8444   */\n      iszero\n      tag_208\n      jumpi\n        /* \"#utility.yul\":8338:8347   */\n      dup5\n        /* \"#utility.yul\":8333:8336   */\n      dup10\n        /* \"#utility.yul\":8329:8348   */\n      add\n        /* \"#utility.yul\":8323:8349   */\n      mload\n        /* \"#utility.yul\":8381:8429   */\n      tag_209\n        /* \"#utility.yul\":8423:8427   */\n      0x1f\n        /* \"#utility.yul\":8415:8421   */\n      dup10\n        /* \"#utility.yul\":8411:8428   */\n      and\n        /* \"#utility.yul\":8400:8409   */\n      dup3\n        /* \"#utility.yul\":8381:8429   */\n      tag_105\n      jump\t// in\n    tag_209:\n        /* \"#utility.yul\":8373:8379   */\n      dup4\n        /* \"#utility.yul\":8366:8430   */\n      sstore\n        /* \"#utility.yul\":8288:8444   */\n      pop\n        /* \"#utility.yul\":8265:8444   */\n    tag_208:\n        /* \"#utility.yul\":8490:8491   */\n      0x01\n        /* \"#utility.yul\":8486:8487   */\n      0x02\n        /* \"#utility.yul\":8478:8484   */\n      dup9\n        /* \"#utility.yul\":8474:8488   */\n      mul\n        /* \"#utility.yul\":8470:8492   */\n      add\n        /* \"#utility.yul\":8464:8468   */\n      dup9\n        /* \"#utility.yul\":8457:8493   */\n      sstore\n        /* \"#utility.yul\":7892:8503   */\n      pop\n      pop\n      pop\n        /* \"#utility.yul\":7855:8742   */\n    tag_200:\n      pop\n        /* \"#utility.yul\":7445:8748   */\n      pop\n      pop\n      pop\n        /* \"#utility.yul\":7353:8748   */\n      pop\n      pop\n      jump\t// out\n        /* \"#utility.yul\":8754:8934   */\n    tag_39:\n        /* \"#utility.yul\":8802:8879   */\n      0x4e487b7100000000000000000000000000000000000000000000000000000000\n        /* \"#utility.yul\":8799:8800   */\n      0x00\n        /* \"#utility.yul\":8792:8880   */\n      mstore\n        /* \"#utility.yul\":8899:8903   */\n      0x32\n        /* \"#utility.yul\":8896:8897   */\n      0x04\n        /* \"#utility.yul\":8889:8904   */\n      mstore\n        /* \"#utility.yul\":8923:8927   */\n      0x24\n        /* \"#utility.yul\":8920:8921   */\n      0x00\n        /* \"#utility.yul\":8913:8928   */\n      revert\n\n    auxdata: 0xa264697066735822122066de68d83fcef15eb80747b914b0b349c6b3a4987859275ab7b4336c48dff83a64736f6c634300081a0033\n}\n",
				"bytecode": {
					"linkReferences": {},
					"object": "6080604052348015600e575f80fd5b50610eec8061001c5f395ff3fe608060405234801561000f575f80fd5b506004361061004a575f3560e01c8063335d00c21461004e57806378684dde14610058578063ee26fac31461008a578063f7746e36146100aa575b5f80fd5b6100566100dc565b005b610072600480360381019061006d9190610a60565b6106c8565b60405161008193929190610b2c565b60405180910390f35b6100926107ad565b6040516100a193929190610b2c565b60405180910390f35b6100c460048036038101906100bf9190610b68565b610868565b6040516100d393929190610b2c565b60405180910390f35b5f60405180606001604052806040518060400160405280600681526020017f546f79617461000000000000000000000000000000000000000000000000000081525081526020016107bf81526020013373ffffffffffffffffffffffffffffffffffffffff1681525090505f60405180606001604052806040518060400160405280600a81526020017f4c616d626f6768696e690000000000000000000000000000000000000000000081525081526020016107bc81526020013373ffffffffffffffffffffffffffffffffffffffff1681525090506101ba610942565b6040518060400160405280600581526020017f5465736c61000000000000000000000000000000000000000000000000000000815250815f01819052506107da81602001818152505033816040019073ffffffffffffffffffffffffffffffffffffffff16908173ffffffffffffffffffffffffffffffffffffffff1681525050600383908060018154018082558091505060019003905f5260205f2090600302015f909190919091505f820151815f0190816102779190610dba565b50602082015181600101556040820151816002015f6101000a81548173ffffffffffffffffffffffffffffffffffffffff021916908373ffffffffffffffffffffffffffffffffffffffff1602179055505050600382908060018154018082558091505060019003905f5260205f2090600302015f909190919091505f820151815f0190816103069190610dba565b50602082015181600101556040820151816002015f6101000a81548173ffffffffffffffffffffffffffffffffffffffff021916908373ffffffffffffffffffffffffffffffffffffffff1602179055505050600381908060018154018082558091505060019003905f5260205f2090600302015f909190919091505f820151815f0190816103959190610dba565b50602082015181600101556040820151816002015f6101000a81548173ffffffffffffffffffffffffffffffffffffffff021916908373ffffffffffffffffffffffffffffffffffffffff1602179055505050600360405180606001604052806040518060400160405280600781526020017f466572726172690000000000000000000000000000000000000000000000000081525081526020016107e481526020013373ffffffffffffffffffffffffffffffffffffffff16815250908060018154018082558091505060019003905f5260205f2090600302015f909190919091505f820151815f01908161048b9190610dba565b50602082015181600101556040820151816002015f6101000a81548173ffffffffffffffffffffffffffffffffffffffff021916908373ffffffffffffffffffffffffffffffffffffffff160217905550505060045f3373ffffffffffffffffffffffffffffffffffffffff1673ffffffffffffffffffffffffffffffffffffffff1681526020019081526020015f2060405180606001604052806040518060400160405280600481526020017f417564690000000000000000000000000000000000000000000000000000000081525081526020016107e481526020013373ffffffffffffffffffffffffffffffffffffffff16815250908060018154018082558091505060019003905f5260205f2090600302015f909190919091505f820151815f0190816105bc9190610dba565b50602082015181600101556040820151816002015f6101000a81548173ffffffffffffffffffffffffffffffffffffffff021916908373ffffffffffffffffffffffffffffffffffffffff16021790555050505f60035f8154811061062457610623610e89565b5b905f5260205f20906003020190506107c68160010181905550806002015f6101000a81549073ffffffffffffffffffffffffffffffffffffffff0219169055600360018154811061067857610677610e89565b5b905f5260205f2090600302015f8082015f6106939190610977565b600182015f9055600282015f6101000a81549073ffffffffffffffffffffffffffffffffffffffff0219169055505050505050565b6004602052815f5260405f2081815481106106e1575f80fd5b905f5260205f2090600302015f9150915050805f01805461070190610bed565b80601f016020809104026020016040519081016040528092919081815260200182805461072d90610bed565b80156107785780601f1061074f57610100808354040283529160200191610778565b820191905f5260205f20905b81548152906001019060200180831161075b57829003601f168201915b505050505090806001015490806002015f9054906101000a900473ffffffffffffffffffffffffffffffffffffffff16905083565b5f805f0180546107bc90610bed565b80601f01602080910402602001604051908101604052809291908181526020018280546107e890610bed565b80156108335780601f1061080a57610100808354040283529160200191610833565b820191905f5260205f20905b81548152906001019060200180831161081657829003601f168201915b505050505090806001015490806002015f9054906101000a900473ffffffffffffffffffffffffffffffffffffffff16905083565b60038181548110610877575f80fd5b905f5260205f2090600302015f91509050805f01805461089690610bed565b80601f01602080910402602001604051908101604052809291908181526020018280546108c290610bed565b801561090d5780601f106108e45761010080835404028352916020019161090d565b820191905f5260205f20905b8154815290600101906020018083116108f057829003601f168201915b505050505090806001015490806002015f9054906101000a900473ffffffffffffffffffffffffffffffffffffffff16905083565b6040518060600160405280606081526020015f81526020015f73ffffffffffffffffffffffffffffffffffffffff1681525090565b50805461098390610bed565b5f825580601f1061099457506109b1565b601f0160209004905f5260205f20908101906109b091906109b4565b5b50565b5b808211156109cb575f815f9055506001016109b5565b5090565b5f80fd5b5f73ffffffffffffffffffffffffffffffffffffffff82169050919050565b5f6109fc826109d3565b9050919050565b610a0c816109f2565b8114610a16575f80fd5b50565b5f81359050610a2781610a03565b92915050565b5f819050919050565b610a3f81610a2d565b8114610a49575f80fd5b50565b5f81359050610a5a81610a36565b92915050565b5f8060408385031215610a7657610a756109cf565b5b5f610a8385828601610a19565b9250506020610a9485828601610a4c565b9150509250929050565b5f81519050919050565b5f82825260208201905092915050565b8281835e5f83830152505050565b5f601f19601f8301169050919050565b5f610ae082610a9e565b610aea8185610aa8565b9350610afa818560208601610ab8565b610b0381610ac6565b840191505092915050565b610b1781610a2d565b82525050565b610b26816109f2565b82525050565b5f6060820190508181035f830152610b448186610ad6565b9050610b536020830185610b0e565b610b606040830184610b1d565b949350505050565b5f60208284031215610b7d57610b7c6109cf565b5b5f610b8a84828501610a4c565b91505092915050565b7f4e487b71000000000000000000000000000000000000000000000000000000005f52604160045260245ffd5b7f4e487b71000000000000000000000000000000000000000000000000000000005f52602260045260245ffd5b5f6002820490506001821680610c0457607f821691505b602082108103610c1757610c16610bc0565b5b50919050565b5f819050815f5260205f209050919050565b5f6020601f8301049050919050565b5f82821b905092915050565b5f60088302610c797fffffffffffffffffffffffffffffffffffffffffffffffffffffffffffffffff82610c3e565b610c838683610c3e565b95508019841693508086168417925050509392505050565b5f819050919050565b5f610cbe610cb9610cb484610a2d565b610c9b565b610a2d565b9050919050565b5f819050919050565b610cd783610ca4565b610ceb610ce382610cc5565b848454610c4a565b825550505050565b5f90565b610cff610cf3565b610d0a818484610cce565b505050565b5b81811015610d2d57610d225f82610cf7565b600181019050610d10565b5050565b601f821115610d7257610d4381610c1d565b610d4c84610c2f565b81016020851015610d5b578190505b610d6f610d6785610c2f565b830182610d0f565b50505b505050565b5f82821c905092915050565b5f610d925f1984600802610d77565b1980831691505092915050565b5f610daa8383610d83565b9150826002028217905092915050565b610dc382610a9e565b67ffffffffffffffff811115610ddc57610ddb610b93565b5b610de68254610bed565b610df1828285610d31565b5f60209050601f831160018114610e22575f8415610e10578287015190505b610e1a8582610d9f565b865550610e81565b601f198416610e3086610c1d565b5f5b82811015610e5757848901518255600182019150602085019450602081019050610e32565b86831015610e745784890151610e70601f891682610d83565b8355505b6001600288020188555050505b505050505050565b7f4e487b71000000000000000000000000000000000000000000000000000000005f52603260045260245ffdfea264697066735822122066de68d83fcef15eb80747b914b0b349c6b3a4987859275ab7b4336c48dff83a64736f6c634300081a0033",
					"opcodes": "PUSH1 0x80 PUSH1 0x40 MSTORE CALLVALUE DUP1 ISZERO PUSH1 0xE JUMPI PUSH0 DUP1 REVERT JUMPDEST POP PUSH2 0xEEC DUP1 PUSH2 0x1C PUSH0 CODECOPY PUSH0 RETURN INVALID PUSH1 0x80 PUSH1 0x40 MSTORE CALLVALUE DUP1 ISZERO PUSH2 0xF JUMPI PUSH0 DUP1 REVERT JUMPDEST POP PUSH1 0x4 CALLDATASIZE LT PUSH2 0x4A JUMPI PUSH0 CALLDATALOAD PUSH1 0xE0 SHR DUP1 PUSH4 0x335D00C2 EQ PUSH2 0x4E JUMPI DUP1 PUSH4 0x78684DDE EQ PUSH2 0x58 JUMPI DUP1 PUSH4 0xEE26FAC3 EQ PUSH2 0x8A JUMPI DUP1 PUSH4 0xF7746E36 EQ PUSH2 0xAA JUMPI JUMPDEST PUSH0 DUP1 REVERT JUMPDEST PUSH2 0x56 PUSH2 0xDC JUMP JUMPDEST STOP JUMPDEST PUSH2 0x72 PUSH1 0x4 DUP1 CALLDATASIZE SUB DUP2 ADD SWAP1 PUSH2 0x6D SWAP2 SWAP1 PUSH2 0xA60 JUMP JUMPDEST PUSH2 0x6C8 JUMP JUMPDEST PUSH1 0x40 MLOAD PUSH2 0x81 SWAP4 SWAP3 SWAP2 SWAP1 PUSH2 0xB2C JUMP JUMPDEST PUSH1 0x40 MLOAD DUP1 SWAP2 SUB SWAP1 RETURN JUMPDEST PUSH2 0x92 PUSH2 0x7AD JUMP JUMPDEST PUSH1 0x40 MLOAD PUSH2 0xA1 SWAP4 SWAP3 SWAP2 SWAP1 PUSH2 0xB2C JUMP JUMPDEST PUSH1 0x40 MLOAD DUP1 SWAP2 SUB SWAP1 RETURN JUMPDEST PUSH2 0xC4 PUSH1 0x4 DUP1 CALLDATASIZE SUB DUP2 ADD SWAP1 PUSH2 0xBF SWAP2 SWAP1 PUSH2 0xB68 JUMP JUMPDEST PUSH2 0x868 JUMP JUMPDEST PUSH1 0x40 MLOAD PUSH2 0xD3 SWAP4 SWAP3 SWAP2 SWAP1 PUSH2 0xB2C JUMP JUMPDEST PUSH1 0x40 MLOAD DUP1 SWAP2 SUB SWAP1 RETURN JUMPDEST PUSH0 PUSH1 0x40 MLOAD DUP1 PUSH1 0x60 ADD PUSH1 0x40 MSTORE DUP1 PUSH1 0x40 MLOAD DUP1 PUSH1 0x40 ADD PUSH1 0x40 MSTORE DUP1 PUSH1 0x6 DUP2 MSTORE PUSH1 0x20 ADD PUSH32 0x546F796174610000000000000000000000000000000000000000000000000000 DUP2 MSTORE POP DUP2 MSTORE PUSH1 0x20 ADD PUSH2 0x7BF DUP2 MSTORE PUSH1 0x20 ADD CALLER PUSH20 0xFFFFFFFFFFFFFFFFFFFFFFFFFFFFFFFFFFFFFFFF AND DUP2 MSTORE POP SWAP1 POP PUSH0 PUSH1 0x40 MLOAD DUP1 PUSH1 0x60 ADD PUSH1 0x40 MSTORE DUP1 PUSH1 0x40 MLOAD DUP1 PUSH1 0x40 ADD PUSH1 0x40 MSTORE DUP1 PUSH1 0xA DUP2 MSTORE PUSH1 0x20 ADD PUSH32 0x4C616D626F6768696E6900000000000000000000000000000000000000000000 DUP2 MSTORE POP DUP2 MSTORE PUSH1 0x20 ADD PUSH2 0x7BC DUP2 MSTORE PUSH1 0x20 ADD CALLER PUSH20 0xFFFFFFFFFFFFFFFFFFFFFFFFFFFFFFFFFFFFFFFF AND DUP2 MSTORE POP SWAP1 POP PUSH2 0x1BA PUSH2 0x942 JUMP JUMPDEST PUSH1 0x40 MLOAD DUP1 PUSH1 0x40 ADD PUSH1 0x40 MSTORE DUP1 PUSH1 0x5 DUP2 MSTORE PUSH1 0x20 ADD PUSH32 0x5465736C61000000000000000000000000000000000000000000000000000000 DUP2 MSTORE POP DUP2 PUSH0 ADD DUP2 SWAP1 MSTORE POP PUSH2 0x7DA DUP2 PUSH1 0x20 ADD DUP2 DUP2 MSTORE POP POP CALLER DUP2 PUSH1 0x40 ADD SWAP1 PUSH20 0xFFFFFFFFFFFFFFFFFFFFFFFFFFFFFFFFFFFFFFFF AND SWAP1 DUP2 PUSH20 0xFFFFFFFFFFFFFFFFFFFFFFFFFFFFFFFFFFFFFFFF AND DUP2 MSTORE POP POP PUSH1 0x3 DUP4 SWAP1 DUP1 PUSH1 0x1 DUP2 SLOAD ADD DUP1 DUP3 SSTORE DUP1 SWAP2 POP POP PUSH1 0x1 SWAP1 SUB SWAP1 PUSH0 MSTORE PUSH1 0x20 PUSH0 KECCAK256 SWAP1 PUSH1 0x3 MUL ADD PUSH0 SWAP1 SWAP2 SWAP1 SWAP2 SWAP1 SWAP2 POP PUSH0 DUP3 ADD MLOAD DUP2 PUSH0 ADD SWAP1 DUP2 PUSH2 0x277 SWAP2 SWAP1 PUSH2 0xDBA JUMP JUMPDEST POP PUSH1 0x20 DUP3 ADD MLOAD DUP2 PUSH1 0x1 ADD SSTORE PUSH1 0x40 DUP3 ADD MLOAD DUP2 PUSH1 0x2 ADD PUSH0 PUSH2 0x100 EXP DUP2 SLOAD DUP2 PUSH20 0xFFFFFFFFFFFFFFFFFFFFFFFFFFFFFFFFFFFFFFFF MUL NOT AND SWAP1 DUP4 PUSH20 0xFFFFFFFFFFFFFFFFFFFFFFFFFFFFFFFFFFFFFFFF AND MUL OR SWAP1 SSTORE POP POP POP PUSH1 0x3 DUP3 SWAP1 DUP1 PUSH1 0x1 DUP2 SLOAD ADD DUP1 DUP3 SSTORE DUP1 SWAP2 POP POP PUSH1 0x1 SWAP1 SUB SWAP1 PUSH0 MSTORE PUSH1 0x20 PUSH0 KECCAK256 SWAP1 PUSH1 0x3 MUL ADD PUSH0 SWAP1 SWAP2 SWAP1 SWAP2 SWAP1 SWAP2 POP PUSH0 DUP3 ADD MLOAD DUP2 PUSH0 ADD SWAP1 DUP2 PUSH2 0x306 SWAP2 SWAP1 PUSH2 0xDBA JUMP JUMPDEST POP PUSH1 0x20 DUP3 ADD MLOAD DUP2 PUSH1 0x1 ADD SSTORE PUSH1 0x40 DUP3 ADD MLOAD DUP2 PUSH1 0x2 ADD PUSH0 PUSH2 0x100 EXP DUP2 SLOAD DUP2 PUSH20 0xFFFFFFFFFFFFFFFFFFFFFFFFFFFFFFFFFFFFFFFF MUL NOT AND SWAP1 DUP4 PUSH20 0xFFFFFFFFFFFFFFFFFFFFFFFFFFFFFFFFFFFFFFFF AND MUL OR SWAP1 SSTORE POP POP POP PUSH1 0x3 DUP2 SWAP1 DUP1 PUSH1 0x1 DUP2 SLOAD ADD DUP1 DUP3 SSTORE DUP1 SWAP2 POP POP PUSH1 0x1 SWAP1 SUB SWAP1 PUSH0 MSTORE PUSH1 0x20 PUSH0 KECCAK256 SWAP1 PUSH1 0x3 MUL ADD PUSH0 SWAP1 SWAP2 SWAP1 SWAP2 SWAP1 SWAP2 POP PUSH0 DUP3 ADD MLOAD DUP2 PUSH0 ADD SWAP1 DUP2 PUSH2 0x395 SWAP2 SWAP1 PUSH2 0xDBA JUMP JUMPDEST POP PUSH1 0x20 DUP3 ADD MLOAD DUP2 PUSH1 0x1 ADD SSTORE PUSH1 0x40 DUP3 ADD MLOAD DUP2 PUSH1 0x2 ADD PUSH0 PUSH2 0x100 EXP DUP2 SLOAD DUP2 PUSH20 0xFFFFFFFFFFFFFFFFFFFFFFFFFFFFFFFFFFFFFFFF MUL NOT AND SWAP1 DUP4 PUSH20 0xFFFFFFFFFFFFFFFFFFFFFFFFFFFFFFFFFFFFFFFF AND MUL OR SWAP1 SSTORE POP POP POP PUSH1 0x3 PUSH1 0x40 MLOAD DUP1 PUSH1 0x60 ADD PUSH1 0x40 MSTORE DUP1 PUSH1 0x40 MLOAD DUP1 PUSH1 0x40 ADD PUSH1 0x40 MSTORE DUP1 PUSH1 0x7 DUP2 MSTORE PUSH1 0x20 ADD PUSH32 0x4665727261726900000000000000000000000000000000000000000000000000 DUP2 MSTORE POP DUP2 MSTORE PUSH1 0x20 ADD PUSH2 0x7E4 DUP2 MSTORE PUSH1 0x20 ADD CALLER PUSH20 0xFFFFFFFFFFFFFFFFFFFFFFFFFFFFFFFFFFFFFFFF AND DUP2 MSTORE POP SWAP1 DUP1 PUSH1 0x1 DUP2 SLOAD ADD DUP1 DUP3 SSTORE DUP1 SWAP2 POP POP PUSH1 0x1 SWAP1 SUB SWAP1 PUSH0 MSTORE PUSH1 0x20 PUSH0 KECCAK256 SWAP1 PUSH1 0x3 MUL ADD PUSH0 SWAP1 SWAP2 SWAP1 SWAP2 SWAP1 SWAP2 POP PUSH0 DUP3 ADD MLOAD DUP2 PUSH0 ADD SWAP1 DUP2 PUSH2 0x48B SWAP2 SWAP1 PUSH2 0xDBA JUMP JUMPDEST POP PUSH1 0x20 DUP3 ADD MLOAD DUP2 PUSH1 0x1 ADD SSTORE PUSH1 0x40 DUP3 ADD MLOAD DUP2 PUSH1 0x2 ADD PUSH0 PUSH2 0x100 EXP DUP2 SLOAD DUP2 PUSH20 0xFFFFFFFFFFFFFFFFFFFFFFFFFFFFFFFFFFFFFFFF MUL NOT AND SWAP1 DUP4 PUSH20 0xFFFFFFFFFFFFFFFFFFFFFFFFFFFFFFFFFFFFFFFF AND MUL OR SWAP1 SSTORE POP POP POP PUSH1 0x4 PUSH0 CALLER PUSH20 0xFFFFFFFFFFFFFFFFFFFFFFFFFFFFFFFFFFFFFFFF AND PUSH20 0xFFFFFFFFFFFFFFFFFFFFFFFFFFFFFFFFFFFFFFFF AND DUP2 MSTORE PUSH1 0x20 ADD SWAP1 DUP2 MSTORE PUSH1 0x20 ADD PUSH0 KECCAK256 PUSH1 0x40 MLOAD DUP1 PUSH1 0x60 ADD PUSH1 0x40 MSTORE DUP1 PUSH1 0x40 MLOAD DUP1 PUSH1 0x40 ADD PUSH1 0x40 MSTORE DUP1 PUSH1 0x4 DUP2 MSTORE PUSH1 0x20 ADD PUSH32 0x4175646900000000000000000000000000000000000000000000000000000000 DUP2 MSTORE POP DUP2 MSTORE PUSH1 0x20 ADD PUSH2 0x7E4 DUP2 MSTORE PUSH1 0x20 ADD CALLER PUSH20 0xFFFFFFFFFFFFFFFFFFFFFFFFFFFFFFFFFFFFFFFF AND DUP2 MSTORE POP SWAP1 DUP1 PUSH1 0x1 DUP2 SLOAD ADD DUP1 DUP3 SSTORE DUP1 SWAP2 POP POP PUSH1 0x1 SWAP1 SUB SWAP1 PUSH0 MSTORE PUSH1 0x20 PUSH0 KECCAK256 SWAP1 PUSH1 0x3 MUL ADD PUSH0 SWAP1 SWAP2 SWAP1 SWAP2 SWAP1 SWAP2 POP PUSH0 DUP3 ADD MLOAD DUP2 PUSH0 ADD SWAP1 DUP2 PUSH2 0x5BC SWAP2 SWAP1 PUSH2 0xDBA JUMP JUMPDEST POP PUSH1 0x20 DUP3 ADD MLOAD DUP2 PUSH1 0x1 ADD SSTORE PUSH1 0x40 DUP3 ADD MLOAD DUP2 PUSH1 0x2 ADD PUSH0 PUSH2 0x100 EXP DUP2 SLOAD DUP2 PUSH20 0xFFFFFFFFFFFFFFFFFFFFFFFFFFFFFFFFFFFFFFFF MUL NOT AND SWAP1 DUP4 PUSH20 0xFFFFFFFFFFFFFFFFFFFFFFFFFFFFFFFFFFFFFFFF AND MUL OR SWAP1 SSTORE POP POP POP PUSH0 PUSH1 0x3 PUSH0 DUP2 SLOAD DUP2 LT PUSH2 0x624 JUMPI PUSH2 0x623 PUSH2 0xE89 JUMP JUMPDEST JUMPDEST SWAP1 PUSH0 MSTORE PUSH1 0x20 PUSH0 KECCAK256 SWAP1 PUSH1 0x3 MUL ADD SWAP1 POP PUSH2 0x7C6 DUP2 PUSH1 0x1 ADD DUP2 SWAP1 SSTORE POP DUP1 PUSH1 0x2 ADD PUSH0 PUSH2 0x100 EXP DUP2 SLOAD SWAP1 PUSH20 0xFFFFFFFFFFFFFFFFFFFFFFFFFFFFFFFFFFFFFFFF MUL NOT AND SWAP1 SSTORE PUSH1 0x3 PUSH1 0x1 DUP2 SLOAD DUP2 LT PUSH2 0x678 JUMPI PUSH2 0x677 PUSH2 0xE89 JUMP JUMPDEST JUMPDEST SWAP1 PUSH0 MSTORE PUSH1 0x20 PUSH0 KECCAK256 SWAP1 PUSH1 0x3 MUL ADD PUSH0 DUP1 DUP3 ADD PUSH0 PUSH2 0x693 SWAP2 SWAP1 PUSH2 0x977 JUMP JUMPDEST PUSH1 0x1 DUP3 ADD PUSH0 SWAP1 SSTORE PUSH1 0x2 DUP3 ADD PUSH0 PUSH2 0x100 EXP DUP2 SLOAD SWAP1 PUSH20 0xFFFFFFFFFFFFFFFFFFFFFFFFFFFFFFFFFFFFFFFF MUL NOT AND SWAP1 SSTORE POP POP POP POP POP POP JUMP JUMPDEST PUSH1 0x4 PUSH1 0x20 MSTORE DUP2 PUSH0 MSTORE PUSH1 0x40 PUSH0 KECCAK256 DUP2 DUP2 SLOAD DUP2 LT PUSH2 0x6E1 JUMPI PUSH0 DUP1 REVERT JUMPDEST SWAP1 PUSH0 MSTORE PUSH1 0x20 PUSH0 KECCAK256 SWAP1 PUSH1 0x3 MUL ADD PUSH0 SWAP2 POP SWAP2 POP POP DUP1 PUSH0 ADD DUP1 SLOAD PUSH2 0x701 SWAP1 PUSH2 0xBED JUMP JUMPDEST DUP1 PUSH1 0x1F ADD PUSH1 0x20 DUP1 SWAP2 DIV MUL PUSH1 0x20 ADD PUSH1 0x40 MLOAD SWAP1 DUP2 ADD PUSH1 0x40 MSTORE DUP1 SWAP3 SWAP2 SWAP1 DUP2 DUP2 MSTORE PUSH1 0x20 ADD DUP3 DUP1 SLOAD PUSH2 0x72D SWAP1 PUSH2 0xBED JUMP JUMPDEST DUP1 ISZERO PUSH2 0x778 JUMPI DUP1 PUSH1 0x1F LT PUSH2 0x74F JUMPI PUSH2 0x100 DUP1 DUP4 SLOAD DIV MUL DUP4 MSTORE SWAP2 PUSH1 0x20 ADD SWAP2 PUSH2 0x778 JUMP JUMPDEST DUP3 ADD SWAP2 SWAP1 PUSH0 MSTORE PUSH1 0x20 PUSH0 KECCAK256 SWAP1 JUMPDEST DUP2 SLOAD DUP2 MSTORE SWAP1 PUSH1 0x1 ADD SWAP1 PUSH1 0x20 ADD DUP1 DUP4 GT PUSH2 0x75B JUMPI DUP3 SWAP1 SUB PUSH1 0x1F AND DUP3 ADD SWAP2 JUMPDEST POP POP POP POP POP SWAP1 DUP1 PUSH1 0x1 ADD SLOAD SWAP1 DUP1 PUSH1 0x2 ADD PUSH0 SWAP1 SLOAD SWAP1 PUSH2 0x100 EXP SWAP1 DIV PUSH20 0xFFFFFFFFFFFFFFFFFFFFFFFFFFFFFFFFFFFFFFFF AND SWAP1 POP DUP4 JUMP JUMPDEST PUSH0 DUP1 PUSH0 ADD DUP1 SLOAD PUSH2 0x7BC SWAP1 PUSH2 0xBED JUMP JUMPDEST DUP1 PUSH1 0x1F ADD PUSH1 0x20 DUP1 SWAP2 DIV MUL PUSH1 0x20 ADD PUSH1 0x40 MLOAD SWAP1 DUP2 ADD PUSH1 0x40 MSTORE DUP1 SWAP3 SWAP2 SWAP1 DUP2 DUP2 MSTORE PUSH1 0x20 ADD DUP3 DUP1 SLOAD PUSH2 0x7E8 SWAP1 PUSH2 0xBED JUMP JUMPDEST DUP1 ISZERO PUSH2 0x833 JUMPI DUP1 PUSH1 0x1F LT PUSH2 0x80A JUMPI PUSH2 0x100 DUP1 DUP4 SLOAD DIV MUL DUP4 MSTORE SWAP2 PUSH1 0x20 ADD SWAP2 PUSH2 0x833 JUMP JUMPDEST DUP3 ADD SWAP2 SWAP1 PUSH0 MSTORE PUSH1 0x20 PUSH0 KECCAK256 SWAP1 JUMPDEST DUP2 SLOAD DUP2 MSTORE SWAP1 PUSH1 0x1 ADD SWAP1 PUSH1 0x20 ADD DUP1 DUP4 GT PUSH2 0x816 JUMPI DUP3 SWAP1 SUB PUSH1 0x1F AND DUP3 ADD SWAP2 JUMPDEST POP POP POP POP POP SWAP1 DUP1 PUSH1 0x1 ADD SLOAD SWAP1 DUP1 PUSH1 0x2 ADD PUSH0 SWAP1 SLOAD SWAP1 PUSH2 0x100 EXP SWAP1 DIV PUSH20 0xFFFFFFFFFFFFFFFFFFFFFFFFFFFFFFFFFFFFFFFF AND SWAP1 POP DUP4 JUMP JUMPDEST PUSH1 0x3 DUP2 DUP2 SLOAD DUP2 LT PUSH2 0x877 JUMPI PUSH0 DUP1 REVERT JUMPDEST SWAP1 PUSH0 MSTORE PUSH1 0x20 PUSH0 KECCAK256 SWAP1 PUSH1 0x3 MUL ADD PUSH0 SWAP2 POP SWAP1 POP DUP1 PUSH0 ADD DUP1 SLOAD PUSH2 0x896 SWAP1 PUSH2 0xBED JUMP JUMPDEST DUP1 PUSH1 0x1F ADD PUSH1 0x20 DUP1 SWAP2 DIV MUL PUSH1 0x20 ADD PUSH1 0x40 MLOAD SWAP1 DUP2 ADD PUSH1 0x40 MSTORE DUP1 SWAP3 SWAP2 SWAP1 DUP2 DUP2 MSTORE PUSH1 0x20 ADD DUP3 DUP1 SLOAD PUSH2 0x8C2 SWAP1 PUSH2 0xBED JUMP JUMPDEST DUP1 ISZERO PUSH2 0x90D JUMPI DUP1 PUSH1 0x1F LT PUSH2 0x8E4 JUMPI PUSH2 0x100 DUP1 DUP4 SLOAD DIV MUL DUP4 MSTORE SWAP2 PUSH1 0x20 ADD SWAP2 PUSH2 0x90D JUMP JUMPDEST DUP3 ADD SWAP2 SWAP1 PUSH0 MSTORE PUSH1 0x20 PUSH0 KECCAK256 SWAP1 JUMPDEST DUP2 SLOAD DUP2 MSTORE SWAP1 PUSH1 0x1 ADD SWAP1 PUSH1 0x20 ADD DUP1 DUP4 GT PUSH2 0x8F0 JUMPI DUP3 SWAP1 SUB PUSH1 0x1F AND DUP3 ADD SWAP2 JUMPDEST POP POP POP POP POP SWAP1 DUP1 PUSH1 0x1 ADD SLOAD SWAP1 DUP1 PUSH1 0x2 ADD PUSH0 SWAP1 SLOAD SWAP1 PUSH2 0x100 EXP SWAP1 DIV PUSH20 0xFFFFFFFFFFFFFFFFFFFFFFFFFFFFFFFFFFFFFFFF AND SWAP1 POP DUP4 JUMP JUMPDEST PUSH1 0x40 MLOAD DUP1 PUSH1 0x60 ADD PUSH1 0x40 MSTORE DUP1 PUSH1 0x60 DUP2 MSTORE PUSH1 0x20 ADD PUSH0 DUP2 MSTORE PUSH1 0x20 ADD PUSH0 PUSH20 0xFFFFFFFFFFFFFFFFFFFFFFFFFFFFFFFFFFFFFFFF AND DUP2 MSTORE POP SWAP1 JUMP JUMPDEST POP DUP1 SLOAD PUSH2 0x983 SWAP1 PUSH2 0xBED JUMP JUMPDEST PUSH0 DUP3 SSTORE DUP1 PUSH1 0x1F LT PUSH2 0x994 JUMPI POP PUSH2 0x9B1 JUMP JUMPDEST PUSH1 0x1F ADD PUSH1 0x20 SWAP1 DIV SWAP1 PUSH0 MSTORE PUSH1 0x20 PUSH0 KECCAK256 SWAP1 DUP2 ADD SWAP1 PUSH2 0x9B0 SWAP2 SWAP1 PUSH2 0x9B4 JUMP JUMPDEST JUMPDEST POP JUMP JUMPDEST JUMPDEST DUP1 DUP3 GT ISZERO PUSH2 0x9CB JUMPI PUSH0 DUP2 PUSH0 SWAP1 SSTORE POP PUSH1 0x1 ADD PUSH2 0x9B5 JUMP JUMPDEST POP SWAP1 JUMP JUMPDEST PUSH0 DUP1 REVERT JUMPDEST PUSH0 PUSH20 0xFFFFFFFFFFFFFFFFFFFFFFFFFFFFFFFFFFFFFFFF DUP3 AND SWAP1 POP SWAP2 SWAP1 POP JUMP JUMPDEST PUSH0 PUSH2 0x9FC DUP3 PUSH2 0x9D3 JUMP JUMPDEST SWAP1 POP SWAP2 SWAP1 POP JUMP JUMPDEST PUSH2 0xA0C DUP2 PUSH2 0x9F2 JUMP JUMPDEST DUP2 EQ PUSH2 0xA16 JUMPI PUSH0 DUP1 REVERT JUMPDEST POP JUMP JUMPDEST PUSH0 DUP2 CALLDATALOAD SWAP1 POP PUSH2 0xA27 DUP2 PUSH2 0xA03 JUMP JUMPDEST SWAP3 SWAP2 POP POP JUMP JUMPDEST PUSH0 DUP2 SWAP1 POP SWAP2 SWAP1 POP JUMP JUMPDEST PUSH2 0xA3F DUP2 PUSH2 0xA2D JUMP JUMPDEST DUP2 EQ PUSH2 0xA49 JUMPI PUSH0 DUP1 REVERT JUMPDEST POP JUMP JUMPDEST PUSH0 DUP2 CALLDATALOAD SWAP1 POP PUSH2 0xA5A DUP2 PUSH2 0xA36 JUMP JUMPDEST SWAP3 SWAP2 POP POP JUMP JUMPDEST PUSH0 DUP1 PUSH1 0x40 DUP4 DUP6 SUB SLT ISZERO PUSH2 0xA76 JUMPI PUSH2 0xA75 PUSH2 0x9CF JUMP JUMPDEST JUMPDEST PUSH0 PUSH2 0xA83 DUP6 DUP3 DUP7 ADD PUSH2 0xA19 JUMP JUMPDEST SWAP3 POP POP PUSH1 0x20 PUSH2 0xA94 DUP6 DUP3 DUP7 ADD PUSH2 0xA4C JUMP JUMPDEST SWAP2 POP POP SWAP3 POP SWAP3 SWAP1 POP JUMP JUMPDEST PUSH0 DUP2 MLOAD SWAP1 POP SWAP2 SWAP1 POP JUMP JUMPDEST PUSH0 DUP3 DUP3 MSTORE PUSH1 0x20 DUP3 ADD SWAP1 POP SWAP3 SWAP2 POP POP JUMP JUMPDEST DUP3 DUP2 DUP4 MCOPY PUSH0 DUP4 DUP4 ADD MSTORE POP POP POP JUMP JUMPDEST PUSH0 PUSH1 0x1F NOT PUSH1 0x1F DUP4 ADD AND SWAP1 POP SWAP2 SWAP1 POP JUMP JUMPDEST PUSH0 PUSH2 0xAE0 DUP3 PUSH2 0xA9E JUMP JUMPDEST PUSH2 0xAEA DUP2 DUP6 PUSH2 0xAA8 JUMP JUMPDEST SWAP4 POP PUSH2 0xAFA DUP2 DUP6 PUSH1 0x20 DUP7 ADD PUSH2 0xAB8 JUMP JUMPDEST PUSH2 0xB03 DUP2 PUSH2 0xAC6 JUMP JUMPDEST DUP5 ADD SWAP2 POP POP SWAP3 SWAP2 POP POP JUMP JUMPDEST PUSH2 0xB17 DUP2 PUSH2 0xA2D JUMP JUMPDEST DUP3 MSTORE POP POP JUMP JUMPDEST PUSH2 0xB26 DUP2 PUSH2 0x9F2 JUMP JUMPDEST DUP3 MSTORE POP POP JUMP JUMPDEST PUSH0 PUSH1 0x60 DUP3 ADD SWAP1 POP DUP2 DUP2 SUB PUSH0 DUP4 ADD MSTORE PUSH2 0xB44 DUP2 DUP7 PUSH2 0xAD6 JUMP JUMPDEST SWAP1 POP PUSH2 0xB53 PUSH1 0x20 DUP4 ADD DUP6 PUSH2 0xB0E JUMP JUMPDEST PUSH2 0xB60 PUSH1 0x40 DUP4 ADD DUP5 PUSH2 0xB1D JUMP JUMPDEST SWAP5 SWAP4 POP POP POP POP JUMP JUMPDEST PUSH0 PUSH1 0x20 DUP3 DUP5 SUB SLT ISZERO PUSH2 0xB7D JUMPI PUSH2 0xB7C PUSH2 0x9CF JUMP JUMPDEST JUMPDEST PUSH0 PUSH2 0xB8A DUP5 DUP3 DUP6 ADD PUSH2 0xA4C JUMP JUMPDEST SWAP2 POP POP SWAP3 SWAP2 POP POP JUMP JUMPDEST PUSH32 0x4E487B7100000000000000000000000000000000000000000000000000000000 PUSH0 MSTORE PUSH1 0x41 PUSH1 0x4 MSTORE PUSH1 0x24 PUSH0 REVERT JUMPDEST PUSH32 0x4E487B7100000000000000000000000000000000000000000000000000000000 PUSH0 MSTORE PUSH1 0x22 PUSH1 0x4 MSTORE PUSH1 0x24 PUSH0 REVERT JUMPDEST PUSH0 PUSH1 0x2 DUP3 DIV SWAP1 POP PUSH1 0x1 DUP3 AND DUP1 PUSH2 0xC04 JUMPI PUSH1 0x7F DUP3 AND SWAP2 POP JUMPDEST PUSH1 0x20 DUP3 LT DUP2 SUB PUSH2 0xC17 JUMPI PUSH2 0xC16 PUSH2 0xBC0 JUMP JUMPDEST JUMPDEST POP SWAP2 SWAP1 POP JUMP JUMPDEST PUSH0 DUP2 SWAP1 POP DUP2 PUSH0 MSTORE PUSH1 0x20 PUSH0 KECCAK256 SWAP1 POP SWAP2 SWAP1 POP JUMP JUMPDEST PUSH0 PUSH1 0x20 PUSH1 0x1F DUP4 ADD DIV SWAP1 POP SWAP2 SWAP1 POP JUMP JUMPDEST PUSH0 DUP3 DUP3 SHL SWAP1 POP SWAP3 SWAP2 POP POP JUMP JUMPDEST PUSH0 PUSH1 0x8 DUP4 MUL PUSH2 0xC79 PUSH32 0xFFFFFFFFFFFFFFFFFFFFFFFFFFFFFFFFFFFFFFFFFFFFFFFFFFFFFFFFFFFFFFFF DUP3 PUSH2 0xC3E JUMP JUMPDEST PUSH2 0xC83 DUP7 DUP4 PUSH2 0xC3E JUMP JUMPDEST SWAP6 POP DUP1 NOT DUP5 AND SWAP4 POP DUP1 DUP7 AND DUP5 OR SWAP3 POP POP POP SWAP4 SWAP3 POP POP POP JUMP JUMPDEST PUSH0 DUP2 SWAP1 POP SWAP2 SWAP1 POP JUMP JUMPDEST PUSH0 PUSH2 0xCBE PUSH2 0xCB9 PUSH2 0xCB4 DUP5 PUSH2 0xA2D JUMP JUMPDEST PUSH2 0xC9B JUMP JUMPDEST PUSH2 0xA2D JUMP JUMPDEST SWAP1 POP SWAP2 SWAP1 POP JUMP JUMPDEST PUSH0 DUP2 SWAP1 POP SWAP2 SWAP1 POP JUMP JUMPDEST PUSH2 0xCD7 DUP4 PUSH2 0xCA4 JUMP JUMPDEST PUSH2 0xCEB PUSH2 0xCE3 DUP3 PUSH2 0xCC5 JUMP JUMPDEST DUP5 DUP5 SLOAD PUSH2 0xC4A JUMP JUMPDEST DUP3 SSTORE POP POP POP POP JUMP JUMPDEST PUSH0 SWAP1 JUMP JUMPDEST PUSH2 0xCFF PUSH2 0xCF3 JUMP JUMPDEST PUSH2 0xD0A DUP2 DUP5 DUP5 PUSH2 0xCCE JUMP JUMPDEST POP POP POP JUMP JUMPDEST JUMPDEST DUP2 DUP2 LT ISZERO PUSH2 0xD2D JUMPI PUSH2 0xD22 PUSH0 DUP3 PUSH2 0xCF7 JUMP JUMPDEST PUSH1 0x1 DUP2 ADD SWAP1 POP PUSH2 0xD10 JUMP JUMPDEST POP POP JUMP JUMPDEST PUSH1 0x1F DUP3 GT ISZERO PUSH2 0xD72 JUMPI PUSH2 0xD43 DUP2 PUSH2 0xC1D JUMP JUMPDEST PUSH2 0xD4C DUP5 PUSH2 0xC2F JUMP JUMPDEST DUP2 ADD PUSH1 0x20 DUP6 LT ISZERO PUSH2 0xD5B JUMPI DUP2 SWAP1 POP JUMPDEST PUSH2 0xD6F PUSH2 0xD67 DUP6 PUSH2 0xC2F JUMP JUMPDEST DUP4 ADD DUP3 PUSH2 0xD0F JUMP JUMPDEST POP POP JUMPDEST POP POP POP JUMP JUMPDEST PUSH0 DUP3 DUP3 SHR SWAP1 POP SWAP3 SWAP2 POP POP JUMP JUMPDEST PUSH0 PUSH2 0xD92 PUSH0 NOT DUP5 PUSH1 0x8 MUL PUSH2 0xD77 JUMP JUMPDEST NOT DUP1 DUP4 AND SWAP2 POP POP SWAP3 SWAP2 POP POP JUMP JUMPDEST PUSH0 PUSH2 0xDAA DUP4 DUP4 PUSH2 0xD83 JUMP JUMPDEST SWAP2 POP DUP3 PUSH1 0x2 MUL DUP3 OR SWAP1 POP SWAP3 SWAP2 POP POP JUMP JUMPDEST PUSH2 0xDC3 DUP3 PUSH2 0xA9E JUMP JUMPDEST PUSH8 0xFFFFFFFFFFFFFFFF DUP2 GT ISZERO PUSH2 0xDDC JUMPI PUSH2 0xDDB PUSH2 0xB93 JUMP JUMPDEST JUMPDEST PUSH2 0xDE6 DUP3 SLOAD PUSH2 0xBED JUMP JUMPDEST PUSH2 0xDF1 DUP3 DUP3 DUP6 PUSH2 0xD31 JUMP JUMPDEST PUSH0 PUSH1 0x20 SWAP1 POP PUSH1 0x1F DUP4 GT PUSH1 0x1 DUP2 EQ PUSH2 0xE22 JUMPI PUSH0 DUP5 ISZERO PUSH2 0xE10 JUMPI DUP3 DUP8 ADD MLOAD SWAP1 POP JUMPDEST PUSH2 0xE1A DUP6 DUP3 PUSH2 0xD9F JUMP JUMPDEST DUP7 SSTORE POP PUSH2 0xE81 JUMP JUMPDEST PUSH1 0x1F NOT DUP5 AND PUSH2 0xE30 DUP7 PUSH2 0xC1D JUMP JUMPDEST PUSH0 JUMPDEST DUP3 DUP2 LT ISZERO PUSH2 0xE57 JUMPI DUP5 DUP10 ADD MLOAD DUP3 SSTORE PUSH1 0x1 DUP3 ADD SWAP2 POP PUSH1 0x20 DUP6 ADD SWAP5 POP PUSH1 0x20 DUP2 ADD SWAP1 POP PUSH2 0xE32 JUMP JUMPDEST DUP7 DUP4 LT ISZERO PUSH2 0xE74 JUMPI DUP5 DUP10 ADD MLOAD PUSH2 0xE70 PUSH1 0x1F DUP10 AND DUP3 PUSH2 0xD83 JUMP JUMPDEST DUP4 SSTORE POP JUMPDEST PUSH1 0x1 PUSH1 0x2 DUP9 MUL ADD DUP9 SSTORE POP POP POP JUMPDEST POP POP POP POP POP POP JUMP JUMPDEST PUSH32 0x4E487B7100000000000000000000000000000000000000000000000000000000 PUSH0 MSTORE PUSH1 0x32 PUSH1 0x4 MSTORE PUSH1 0x24 PUSH0 REVERT INVALID LOG2 PUSH5 0x6970667358 0x22 SLT KECCAK256 PUSH7 0xDE68D83FCEF15E 0xB8 SMOD SELFBALANCE 0xB9 EQ 0xB0 0xB3 BLOBHASH 0xC6 0xB3 LOG4 SWAP9 PUSH25 0x59275AB7B4336C48DFF83A64736F6C634300081A0033000000 "
				},
				"gasEstimates": {
					"creation": {
						"codeDepositCost": "764000",
						"executionCost": "797",
						"totalCost": "764797"
					},
					"external": {
						"car()": "infinite",
						"cars(uint256)": "infinite",
						"carsByeOwner(address,uint256)": "infinite",
						"examples()": "infinite"
					}
				},
				"methodIdentifiers": {
					"car()": "ee26fac3",
					"cars(uint256)": "f7746e36",
					"carsByeOwner(address,uint256)": "78684dde",
					"examples()": "335d00c2"
				}
			},
			"storageLayout": {
				"storage": [
					{
						"astId": 11,
						"contract": "Structs.sol:Structs",
						"label": "car",
						"offset": 0,
						"slot": "0",
						"type": "t_struct(Car)8_storage"
					},
					{
						"astId": 15,
						"contract": "Structs.sol:Structs",
						"label": "cars",
						"offset": 0,
						"slot": "3",
						"type": "t_array(t_struct(Car)8_storage)dyn_storage"
					},
					{
						"astId": 21,
						"contract": "Structs.sol:Structs",
						"label": "carsByeOwner",
						"offset": 0,
						"slot": "4",
						"type": "t_mapping(t_address,t_array(t_struct(Car)8_storage)dyn_storage)"
					}
				],
				"types": {
					"t_address": {
						"encoding": "inplace",
						"label": "address",
						"numberOfBytes": "20"
					},
					"t_array(t_struct(Car)8_storage)dyn_storage": {
						"base": "t_struct(Car)8_storage",
						"encoding": "dynamic_array",
						"label": "struct Structs.Car[]",
						"numberOfBytes": "32"
					},
					"t_mapping(t_address,t_array(t_struct(Car)8_storage)dyn_storage)": {
						"encoding": "mapping",
						"key": "t_address",
						"label": "mapping(address => struct Structs.Car[])",
						"numberOfBytes": "32",
						"value": "t_array(t_struct(Car)8_storage)dyn_storage"
					},
					"t_string_storage": {
						"encoding": "bytes",
						"label": "string",
						"numberOfBytes": "32"
					},
					"t_struct(Car)8_storage": {
						"encoding": "inplace",
						"label": "struct Structs.Car",
						"members": [
							{
								"astId": 3,
								"contract": "Structs.sol:Structs",
								"label": "model",
								"offset": 0,
								"slot": "0",
								"type": "t_string_storage"
							},
							{
								"astId": 5,
								"contract": "Structs.sol:Structs",
								"label": "year",
								"offset": 0,
								"slot": "1",
								"type": "t_uint256"
							},
							{
								"astId": 7,
								"contract": "Structs.sol:Structs",
								"label": "owner",
								"offset": 0,
								"slot": "2",
								"type": "t_address"
							}
						],
						"numberOfBytes": "96"
					},
					"t_uint256": {
						"encoding": "inplace",
						"label": "uint256",
						"numberOfBytes": "32"
					}
				}
			},
			"userdoc": {
				"kind": "user",
				"methods": {},
				"version": 1
			}
		}
	}
}