{
	"ForAndWhileLoop.sol": {
		"ForAndWhileLoops": {
			"abi": [
				{
					"inputs": [],
					"name": "loops",
					"outputs": [],
					"stateMutability": "pure",
					"type": "function"
				},
				{
					"inputs": [
						{
							"internalType": "uint256",
							"name": "_n",
							"type": "uint256"
						}
					],
					"name": "sum",
					"outputs": [
						{
							"internalType": "uint256",
							"name": "",
							"type": "uint256"
						}
					],
					"stateMutability": "pure",
					"type": "function"
				}
			],
			"devdoc": {
				"kind": "dev",
				"methods": {},
				"version": 1
			},
			"evm": {
				"assembly": "    /* \"ForAndWhileLoop.sol\":60:520  contract ForAndWhileLoops {... */\n  mstore(0x40, 0x80)\n  callvalue\n  dup1\n  iszero\n  tag_1\n  jumpi\n  0x00\n  dup1\n  revert\ntag_1:\n  pop\n  dataSize(sub_0)\n  dup1\n  dataOffset(sub_0)\n  0x00\n  codecopy\n  0x00\n  return\nstop\n\nsub_0: assembly {\n        /* \"ForAndWhileLoop.sol\":60:520  contract ForAndWhileLoops {... */\n      mstore(0x40, 0x80)\n      callvalue\n      dup1\n      iszero\n      tag_1\n      jumpi\n      0x00\n      dup1\n      revert\n    tag_1:\n      pop\n      jumpi(tag_2, lt(calldatasize, 0x04))\n      shr(0xe0, calldataload(0x00))\n      dup1\n      0x188b85b4\n      eq\n      tag_3\n      jumpi\n      dup1\n      0x938b9ceb\n      eq\n      tag_4\n      jumpi\n    tag_2:\n      0x00\n      dup1\n      revert\n        /* \"ForAndWhileLoop.sol\":369:517  function sum(uint _n) external pure returns(uint) {... */\n    tag_3:\n      tag_5\n      0x04\n      dup1\n      calldatasize\n      sub\n      dup2\n      add\n      swap1\n      tag_6\n      swap2\n      swap1\n      tag_7\n      jump\t// in\n    tag_6:\n      tag_8\n      jump\t// in\n    tag_5:\n      mload(0x40)\n      tag_9\n      swap2\n      swap1\n      tag_10\n      jump\t// in\n    tag_9:\n      mload(0x40)\n      dup1\n      swap2\n      sub\n      swap1\n      return\n        /* \"ForAndWhileLoop.sol\":93:361  function loops() external pure {... */\n    tag_4:\n      tag_11\n      tag_12\n      jump\t// in\n    tag_11:\n      stop\n        /* \"ForAndWhileLoop.sol\":369:517  function sum(uint _n) external pure returns(uint) {... */\n    tag_8:\n        /* \"ForAndWhileLoop.sol\":413:417  uint */\n      0x00\n        /* \"ForAndWhileLoop.sol\":430:436  uint s */\n      dup1\n        /* \"ForAndWhileLoop.sol\":439:440  0 */\n      0x00\n        /* \"ForAndWhileLoop.sol\":430:440  uint s = 0 */\n      swap1\n      pop\n        /* \"ForAndWhileLoop.sol\":455:461  uint i */\n      0x00\n        /* \"ForAndWhileLoop.sol\":464:465  1 */\n      0x01\n        /* \"ForAndWhileLoop.sol\":455:465  uint i = 1 */\n      swap1\n      pop\n        /* \"ForAndWhileLoop.sol\":451:490  for(uint i = 1; i < _n + 1; i++) s += i */\n    tag_14:\n        /* \"ForAndWhileLoop.sol\":476:477  1 */\n      0x01\n        /* \"ForAndWhileLoop.sol\":471:473  _n */\n      dup5\n        /* \"ForAndWhileLoop.sol\":471:477  _n + 1 */\n      tag_17\n      swap2\n      swap1\n      tag_18\n      jump\t// in\n    tag_17:\n        /* \"ForAndWhileLoop.sol\":467:468  i */\n      dup2\n        /* \"ForAndWhileLoop.sol\":467:477  i < _n + 1 */\n      lt\n        /* \"ForAndWhileLoop.sol\":451:490  for(uint i = 1; i < _n + 1; i++) s += i */\n      iszero\n      tag_15\n      jumpi\n        /* \"ForAndWhileLoop.sol\":489:490  i */\n      dup1\n        /* \"ForAndWhileLoop.sol\":484:490  s += i */\n      dup3\n      tag_19\n      swap2\n      swap1\n      tag_18\n      jump\t// in\n    tag_19:\n      swap2\n      pop\n        /* \"ForAndWhileLoop.sol\":479:482  i++ */\n      dup1\n      dup1\n      0x01\n      add\n      swap2\n      pop\n      pop\n        /* \"ForAndWhileLoop.sol\":451:490  for(uint i = 1; i < _n + 1; i++) s += i */\n      jump(tag_14)\n    tag_15:\n      pop\n        /* \"ForAndWhileLoop.sol\":508:509  s */\n      dup1\n        /* \"ForAndWhileLoop.sol\":501:509  return s */\n      swap2\n      pop\n      pop\n        /* \"ForAndWhileLoop.sol\":369:517  function sum(uint _n) external pure returns(uint) {... */\n      swap2\n      swap1\n      pop\n      jump\t// out\n        /* \"ForAndWhileLoop.sol\":93:361  function loops() external pure {... */\n    tag_12:\n        /* \"ForAndWhileLoop.sol\":140:146  uint i */\n      0x00\n        /* \"ForAndWhileLoop.sol\":149:150  1 */\n      0x01\n        /* \"ForAndWhileLoop.sol\":140:150  uint i = 1 */\n      swap1\n      pop\n        /* \"ForAndWhileLoop.sol\":135:242  for (uint i = 1; i <= 5; i++) {... */\n    tag_21:\n        /* \"ForAndWhileLoop.sol\":157:158  5 */\n      0x05\n        /* \"ForAndWhileLoop.sol\":152:153  i */\n      dup2\n        /* \"ForAndWhileLoop.sol\":152:158  i <= 5 */\n      gt\n        /* \"ForAndWhileLoop.sol\":135:242  for (uint i = 1; i <= 5; i++) {... */\n      tag_22\n      jumpi\n        /* \"ForAndWhileLoop.sol\":188:189  3 */\n      0x03\n        /* \"ForAndWhileLoop.sol\":183:184  i */\n      dup2\n        /* \"ForAndWhileLoop.sol\":183:189  i == 3 */\n      sub\n        /* \"ForAndWhileLoop.sol\":180:199  if(i == 3) continue */\n      iszero\n        /* \"ForAndWhileLoop.sol\":191:199  continue */\n      tag_23\n        /* \"ForAndWhileLoop.sol\":180:199  if(i == 3) continue */\n      jumpi\n        /* \"ForAndWhileLoop.sol\":222:223  5 */\n      0x05\n        /* \"ForAndWhileLoop.sol\":217:218  i */\n      dup2\n        /* \"ForAndWhileLoop.sol\":217:223  i == 5 */\n      sub\n        /* \"ForAndWhileLoop.sol\":214:230  if(i == 5) break */\n      iszero\n        /* \"ForAndWhileLoop.sol\":225:230  break */\n      tag_22\n        /* \"ForAndWhileLoop.sol\":214:230  if(i == 5) break */\n      jumpi\n        /* \"ForAndWhileLoop.sol\":135:242  for (uint i = 1; i <= 5; i++) {... */\n    tag_23:\n        /* \"ForAndWhileLoop.sol\":160:163  i++ */\n      dup1\n      dup1\n      tag_26\n      swap1\n      tag_27\n      jump\t// in\n    tag_26:\n      swap2\n      pop\n      pop\n        /* \"ForAndWhileLoop.sol\":135:242  for (uint i = 1; i <= 5; i++) {... */\n      jump(tag_21)\n    tag_22:\n      pop\n        /* \"ForAndWhileLoop.sol\":254:260  uint j */\n      0x00\n        /* \"ForAndWhileLoop.sol\":263:264  1 */\n      0x01\n        /* \"ForAndWhileLoop.sol\":254:264  uint j = 1 */\n      swap1\n      pop\n        /* \"ForAndWhileLoop.sol\":275:354  while (j <= 5) {... */\n    tag_28:\n        /* \"ForAndWhileLoop.sol\":287:288  5 */\n      0x05\n        /* \"ForAndWhileLoop.sol\":282:283  j */\n      dup2\n        /* \"ForAndWhileLoop.sol\":282:288  j <= 5 */\n      gt\n        /* \"ForAndWhileLoop.sol\":275:354  while (j <= 5) {... */\n      tag_29\n      jumpi\n        /* \"ForAndWhileLoop.sol\":313:314  3 */\n      0x03\n        /* \"ForAndWhileLoop.sol\":308:309  j */\n      dup2\n        /* \"ForAndWhileLoop.sol\":308:314  j == 3 */\n      sub\n        /* \"ForAndWhileLoop.sol\":305:324  if(j == 3) continue */\n      iszero\n        /* \"ForAndWhileLoop.sol\":316:324  continue */\n      tag_28\n        /* \"ForAndWhileLoop.sol\":305:324  if(j == 3) continue */\n      jumpi\n        /* \"ForAndWhileLoop.sol\":339:342  j++ */\n      dup1\n      dup1\n      tag_31\n      swap1\n      tag_27\n      jump\t// in\n    tag_31:\n      swap2\n      pop\n      pop\n        /* \"ForAndWhileLoop.sol\":275:354  while (j <= 5) {... */\n      jump(tag_28)\n    tag_29:\n        /* \"ForAndWhileLoop.sol\":124:361  {... */\n      pop\n        /* \"ForAndWhileLoop.sol\":93:361  function loops() external pure {... */\n      jump\t// out\n        /* \"#utility.yul\":88:205   */\n    tag_33:\n        /* \"#utility.yul\":197:198   */\n      0x00\n        /* \"#utility.yul\":194:195   */\n      dup1\n        /* \"#utility.yul\":187:199   */\n      revert\n        /* \"#utility.yul\":334:411   */\n    tag_35:\n        /* \"#utility.yul\":371:378   */\n      0x00\n        /* \"#utility.yul\":400:405   */\n      dup2\n        /* \"#utility.yul\":389:405   */\n      swap1\n      pop\n        /* \"#utility.yul\":334:411   */\n      swap2\n      swap1\n      pop\n      jump\t// out\n        /* \"#utility.yul\":417:539   */\n    tag_36:\n        /* \"#utility.yul\":490:514   */\n      tag_46\n        /* \"#utility.yul\":508:513   */\n      dup2\n        /* \"#utility.yul\":490:514   */\n      tag_35\n      jump\t// in\n    tag_46:\n        /* \"#utility.yul\":483:488   */\n      dup2\n        /* \"#utility.yul\":480:515   */\n      eq\n        /* \"#utility.yul\":470:533   */\n      tag_47\n      jumpi\n        /* \"#utility.yul\":529:530   */\n      0x00\n        /* \"#utility.yul\":526:527   */\n      dup1\n        /* \"#utility.yul\":519:531   */\n      revert\n        /* \"#utility.yul\":470:533   */\n    tag_47:\n        /* \"#utility.yul\":417:539   */\n      pop\n      jump\t// out\n        /* \"#utility.yul\":545:684   */\n    tag_37:\n        /* \"#utility.yul\":591:596   */\n      0x00\n        /* \"#utility.yul\":629:635   */\n      dup2\n        /* \"#utility.yul\":616:636   */\n      calldataload\n        /* \"#utility.yul\":607:636   */\n      swap1\n      pop\n        /* \"#utility.yul\":645:678   */\n      tag_49\n        /* \"#utility.yul\":672:677   */\n      dup2\n        /* \"#utility.yul\":645:678   */\n      tag_36\n      jump\t// in\n    tag_49:\n        /* \"#utility.yul\":545:684   */\n      swap3\n      swap2\n      pop\n      pop\n      jump\t// out\n        /* \"#utility.yul\":690:1019   */\n    tag_7:\n        /* \"#utility.yul\":749:755   */\n      0x00\n        /* \"#utility.yul\":798:800   */\n      0x20\n        /* \"#utility.yul\":786:795   */\n      dup3\n        /* \"#utility.yul\":777:784   */\n      dup5\n        /* \"#utility.yul\":773:796   */\n      sub\n        /* \"#utility.yul\":769:801   */\n      slt\n        /* \"#utility.yul\":766:885   */\n      iszero\n      tag_51\n      jumpi\n        /* \"#utility.yul\":804:883   */\n      tag_52\n      tag_33\n      jump\t// in\n    tag_52:\n        /* \"#utility.yul\":766:885   */\n    tag_51:\n        /* \"#utility.yul\":924:925   */\n      0x00\n        /* \"#utility.yul\":949:1002   */\n      tag_53\n        /* \"#utility.yul\":994:1001   */\n      dup5\n        /* \"#utility.yul\":985:991   */\n      dup3\n        /* \"#utility.yul\":974:983   */\n      dup6\n        /* \"#utility.yul\":970:992   */\n      add\n        /* \"#utility.yul\":949:1002   */\n      tag_37\n      jump\t// in\n    tag_53:\n        /* \"#utility.yul\":939:1002   */\n      swap2\n      pop\n        /* \"#utility.yul\":895:1012   */\n      pop\n        /* \"#utility.yul\":690:1019   */\n      swap3\n      swap2\n      pop\n      pop\n      jump\t// out\n        /* \"#utility.yul\":1025:1143   */\n    tag_38:\n        /* \"#utility.yul\":1112:1136   */\n      tag_55\n        /* \"#utility.yul\":1130:1135   */\n      dup2\n        /* \"#utility.yul\":1112:1136   */\n      tag_35\n      jump\t// in\n    tag_55:\n        /* \"#utility.yul\":1107:1110   */\n      dup3\n        /* \"#utility.yul\":1100:1137   */\n      mstore\n        /* \"#utility.yul\":1025:1143   */\n      pop\n      pop\n      jump\t// out\n        /* \"#utility.yul\":1149:1371   */\n    tag_10:\n        /* \"#utility.yul\":1242:1246   */\n      0x00\n        /* \"#utility.yul\":1280:1282   */\n      0x20\n        /* \"#utility.yul\":1269:1278   */\n      dup3\n        /* \"#utility.yul\":1265:1283   */\n      add\n        /* \"#utility.yul\":1257:1283   */\n      swap1\n      pop\n        /* \"#utility.yul\":1293:1364   */\n      tag_57\n        /* \"#utility.yul\":1361:1362   */\n      0x00\n        /* \"#utility.yul\":1350:1359   */\n      dup4\n        /* \"#utility.yul\":1346:1363   */\n      add\n        /* \"#utility.yul\":1337:1343   */\n      dup5\n        /* \"#utility.yul\":1293:1364   */\n      tag_38\n      jump\t// in\n    tag_57:\n        /* \"#utility.yul\":1149:1371   */\n      swap3\n      swap2\n      pop\n      pop\n      jump\t// out\n        /* \"#utility.yul\":1377:1557   */\n    tag_39:\n        /* \"#utility.yul\":1425:1502   */\n      0x4e487b7100000000000000000000000000000000000000000000000000000000\n        /* \"#utility.yul\":1422:1423   */\n      0x00\n        /* \"#utility.yul\":1415:1503   */\n      mstore\n        /* \"#utility.yul\":1522:1526   */\n      0x11\n        /* \"#utility.yul\":1519:1520   */\n      0x04\n        /* \"#utility.yul\":1512:1527   */\n      mstore\n        /* \"#utility.yul\":1546:1550   */\n      0x24\n        /* \"#utility.yul\":1543:1544   */\n      0x00\n        /* \"#utility.yul\":1536:1551   */\n      revert\n        /* \"#utility.yul\":1563:1754   */\n    tag_18:\n        /* \"#utility.yul\":1603:1606   */\n      0x00\n        /* \"#utility.yul\":1622:1642   */\n      tag_60\n        /* \"#utility.yul\":1640:1641   */\n      dup3\n        /* \"#utility.yul\":1622:1642   */\n      tag_35\n      jump\t// in\n    tag_60:\n        /* \"#utility.yul\":1617:1642   */\n      swap2\n      pop\n        /* \"#utility.yul\":1656:1676   */\n      tag_61\n        /* \"#utility.yul\":1674:1675   */\n      dup4\n        /* \"#utility.yul\":1656:1676   */\n      tag_35\n      jump\t// in\n    tag_61:\n        /* \"#utility.yul\":1651:1676   */\n      swap3\n      pop\n        /* \"#utility.yul\":1699:1700   */\n      dup3\n        /* \"#utility.yul\":1696:1697   */\n      dup3\n        /* \"#utility.yul\":1692:1701   */\n      add\n        /* \"#utility.yul\":1685:1701   */\n      swap1\n      pop\n        /* \"#utility.yul\":1720:1723   */\n      dup1\n        /* \"#utility.yul\":1717:1718   */\n      dup3\n        /* \"#utility.yul\":1714:1724   */\n      gt\n        /* \"#utility.yul\":1711:1747   */\n      iszero\n      tag_62\n      jumpi\n        /* \"#utility.yul\":1727:1745   */\n      tag_63\n      tag_39\n      jump\t// in\n    tag_63:\n        /* \"#utility.yul\":1711:1747   */\n    tag_62:\n        /* \"#utility.yul\":1563:1754   */\n      swap3\n      swap2\n      pop\n      pop\n      jump\t// out\n        /* \"#utility.yul\":1760:1993   */\n    tag_27:\n        /* \"#utility.yul\":1799:1802   */\n      0x00\n        /* \"#utility.yul\":1822:1846   */\n      tag_65\n        /* \"#utility.yul\":1840:1845   */\n      dup3\n        /* \"#utility.yul\":1822:1846   */\n      tag_35\n      jump\t// in\n    tag_65:\n        /* \"#utility.yul\":1813:1846   */\n      swap2\n      pop\n        /* \"#utility.yul\":1868:1934   */\n      0xffffffffffffffffffffffffffffffffffffffffffffffffffffffffffffffff\n        /* \"#utility.yul\":1861:1866   */\n      dup3\n        /* \"#utility.yul\":1858:1935   */\n      sub\n        /* \"#utility.yul\":1855:1958   */\n      tag_66\n      jumpi\n        /* \"#utility.yul\":1938:1956   */\n      tag_67\n      tag_39\n      jump\t// in\n    tag_67:\n        /* \"#utility.yul\":1855:1958   */\n    tag_66:\n        /* \"#utility.yul\":1985:1986   */\n      0x01\n        /* \"#utility.yul\":1978:1983   */\n      dup3\n        /* \"#utility.yul\":1974:1987   */\n      add\n        /* \"#utility.yul\":1967:1987   */\n      swap1\n      pop\n        /* \"#utility.yul\":1760:1993   */\n      swap2\n      swap1\n      pop\n      jump\t// out\n\n    auxdata: 0xa2646970667358221220b2b8e4c23503fbcc1a3de2912ff5d452d2afa32ccd9a692b446f3718ae61182c64736f6c634300081a0033\n}\n",
				"bytecode": {
					"linkReferences": {},
					"object": "6080604052348015600e575f80fd5b5061027f8061001c5f395ff3fe608060405234801561000f575f80fd5b5060043610610034575f3560e01c8063188b85b414610038578063938b9ceb14610068575b5f80fd5b610052600480360381019061004d919061014f565b610072565b60405161005f9190610189565b60405180910390f35b6100706100b6565b005b5f805f90505f600190505b60018461008a91906101cf565b8110156100ac57808261009d91906101cf565b9150808060010191505061007d565b5080915050919050565b5f600190505b600581116100ea5760038103156100d75760058103156100ea575b80806100e290610202565b9150506100bc565b505f600190505b600581116101155760038103156100f157808061010d90610202565b9150506100f1565b50565b5f80fd5b5f819050919050565b61012e8161011c565b8114610138575f80fd5b50565b5f8135905061014981610125565b92915050565b5f6020828403121561016457610163610118565b5b5f6101718482850161013b565b91505092915050565b6101838161011c565b82525050565b5f60208201905061019c5f83018461017a565b92915050565b7f4e487b71000000000000000000000000000000000000000000000000000000005f52601160045260245ffd5b5f6101d98261011c565b91506101e48361011c565b92508282019050808211156101fc576101fb6101a2565b5b92915050565b5f61020c8261011c565b91507fffffffffffffffffffffffffffffffffffffffffffffffffffffffffffffffff820361023e5761023d6101a2565b5b60018201905091905056fea2646970667358221220b2b8e4c23503fbcc1a3de2912ff5d452d2afa32ccd9a692b446f3718ae61182c64736f6c634300081a0033",
					"opcodes": "PUSH1 0x80 PUSH1 0x40 MSTORE CALLVALUE DUP1 ISZERO PUSH1 0xE JUMPI PUSH0 DUP1 REVERT JUMPDEST POP PUSH2 0x27F DUP1 PUSH2 0x1C PUSH0 CODECOPY PUSH0 RETURN INVALID PUSH1 0x80 PUSH1 0x40 MSTORE CALLVALUE DUP1 ISZERO PUSH2 0xF JUMPI PUSH0 DUP1 REVERT JUMPDEST POP PUSH1 0x4 CALLDATASIZE LT PUSH2 0x34 JUMPI PUSH0 CALLDATALOAD PUSH1 0xE0 SHR DUP1 PUSH4 0x188B85B4 EQ PUSH2 0x38 JUMPI DUP1 PUSH4 0x938B9CEB EQ PUSH2 0x68 JUMPI JUMPDEST PUSH0 DUP1 REVERT JUMPDEST PUSH2 0x52 PUSH1 0x4 DUP1 CALLDATASIZE SUB DUP2 ADD SWAP1 PUSH2 0x4D SWAP2 SWAP1 PUSH2 0x14F JUMP JUMPDEST PUSH2 0x72 JUMP JUMPDEST PUSH1 0x40 MLOAD PUSH2 0x5F SWAP2 SWAP1 PUSH2 0x189 JUMP JUMPDEST PUSH1 0x40 MLOAD DUP1 SWAP2 SUB SWAP1 RETURN JUMPDEST PUSH2 0x70 PUSH2 0xB6 JUMP JUMPDEST STOP JUMPDEST PUSH0 DUP1 PUSH0 SWAP1 POP PUSH0 PUSH1 0x1 SWAP1 POP JUMPDEST PUSH1 0x1 DUP5 PUSH2 0x8A SWAP2 SWAP1 PUSH2 0x1CF JUMP JUMPDEST DUP2 LT ISZERO PUSH2 0xAC JUMPI DUP1 DUP3 PUSH2 0x9D SWAP2 SWAP1 PUSH2 0x1CF JUMP JUMPDEST SWAP2 POP DUP1 DUP1 PUSH1 0x1 ADD SWAP2 POP POP PUSH2 0x7D JUMP JUMPDEST POP DUP1 SWAP2 POP POP SWAP2 SWAP1 POP JUMP JUMPDEST PUSH0 PUSH1 0x1 SWAP1 POP JUMPDEST PUSH1 0x5 DUP2 GT PUSH2 0xEA JUMPI PUSH1 0x3 DUP2 SUB ISZERO PUSH2 0xD7 JUMPI PUSH1 0x5 DUP2 SUB ISZERO PUSH2 0xEA JUMPI JUMPDEST DUP1 DUP1 PUSH2 0xE2 SWAP1 PUSH2 0x202 JUMP JUMPDEST SWAP2 POP POP PUSH2 0xBC JUMP JUMPDEST POP PUSH0 PUSH1 0x1 SWAP1 POP JUMPDEST PUSH1 0x5 DUP2 GT PUSH2 0x115 JUMPI PUSH1 0x3 DUP2 SUB ISZERO PUSH2 0xF1 JUMPI DUP1 DUP1 PUSH2 0x10D SWAP1 PUSH2 0x202 JUMP JUMPDEST SWAP2 POP POP PUSH2 0xF1 JUMP JUMPDEST POP JUMP JUMPDEST PUSH0 DUP1 REVERT JUMPDEST PUSH0 DUP2 SWAP1 POP SWAP2 SWAP1 POP JUMP JUMPDEST PUSH2 0x12E DUP2 PUSH2 0x11C JUMP JUMPDEST DUP2 EQ PUSH2 0x138 JUMPI PUSH0 DUP1 REVERT JUMPDEST POP JUMP JUMPDEST PUSH0 DUP2 CALLDATALOAD SWAP1 POP PUSH2 0x149 DUP2 PUSH2 0x125 JUMP JUMPDEST SWAP3 SWAP2 POP POP JUMP JUMPDEST PUSH0 PUSH1 0x20 DUP3 DUP5 SUB SLT ISZERO PUSH2 0x164 JUMPI PUSH2 0x163 PUSH2 0x118 JUMP JUMPDEST JUMPDEST PUSH0 PUSH2 0x171 DUP5 DUP3 DUP6 ADD PUSH2 0x13B JUMP JUMPDEST SWAP2 POP POP SWAP3 SWAP2 POP POP JUMP JUMPDEST PUSH2 0x183 DUP2 PUSH2 0x11C JUMP JUMPDEST DUP3 MSTORE POP POP JUMP JUMPDEST PUSH0 PUSH1 0x20 DUP3 ADD SWAP1 POP PUSH2 0x19C PUSH0 DUP4 ADD DUP5 PUSH2 0x17A JUMP JUMPDEST SWAP3 SWAP2 POP POP JUMP JUMPDEST PUSH32 0x4E487B7100000000000000000000000000000000000000000000000000000000 PUSH0 MSTORE PUSH1 0x11 PUSH1 0x4 MSTORE PUSH1 0x24 PUSH0 REVERT JUMPDEST PUSH0 PUSH2 0x1D9 DUP3 PUSH2 0x11C JUMP JUMPDEST SWAP2 POP PUSH2 0x1E4 DUP4 PUSH2 0x11C JUMP JUMPDEST SWAP3 POP DUP3 DUP3 ADD SWAP1 POP DUP1 DUP3 GT ISZERO PUSH2 0x1FC JUMPI PUSH2 0x1FB PUSH2 0x1A2 JUMP JUMPDEST JUMPDEST SWAP3 SWAP2 POP POP JUMP JUMPDEST PUSH0 PUSH2 0x20C DUP3 PUSH2 0x11C JUMP JUMPDEST SWAP2 POP PUSH32 0xFFFFFFFFFFFFFFFFFFFFFFFFFFFFFFFFFFFFFFFFFFFFFFFFFFFFFFFFFFFFFFFF DUP3 SUB PUSH2 0x23E JUMPI PUSH2 0x23D PUSH2 0x1A2 JUMP JUMPDEST JUMPDEST PUSH1 0x1 DUP3 ADD SWAP1 POP SWAP2 SWAP1 POP JUMP INVALID LOG2 PUSH5 0x6970667358 0x22 SLT KECCAK256 0xB2 0xB8 0xE4 0xC2 CALLDATALOAD SUB 0xFB 0xCC BYTE RETURNDATASIZE 0xE2 SWAP2 0x2F CREATE2 0xD4 MSTORE 0xD2 0xAF LOG3 0x2C 0xCD SWAP11 PUSH10 0x2B446F3718AE61182C64 PUSH20 0x6F6C634300081A00330000000000000000000000 "
				},
				"gasEstimates": {
					"creation": {
						"codeDepositCost": "127800",
						"executionCost": "169",
						"totalCost": "127969"
					},
					"external": {
						"loops()": "infinite",
						"sum(uint256)": "infinite"
					}
				},
				"methodIdentifiers": {
					"loops()": "938b9ceb",
					"sum(uint256)": "188b85b4"
				}
			},
			"storageLayout": {
				"storage": [],
				"types": null
			},
			"userdoc": {
				"kind": "user",
				"methods": {},
				"version": 1
			}
		}
	}
}